{
  "_format": "hh3-artifact-1",
  "contractName": "ConfidentialLottery",
  "sourceName": "contracts/ConfidentialLottery.sol",
  "abi": [
    {
      "inputs": [],
      "stateMutability": "nonpayable",
      "type": "constructor"
    },
    {
      "anonymous": false,
      "inputs": [
        {
          "indexed": true,
          "internalType": "address",
          "name": "admin",
          "type": "address"
        },
        {
          "indexed": false,
          "internalType": "uint256",
          "name": "timestamp",
          "type": "uint256"
        }
      ],
      "name": "LotteryReset",
      "type": "event"
    },
    {
      "anonymous": false,
      "inputs": [
        {
          "indexed": true,
          "internalType": "address",
          "name": "winner",
          "type": "address"
        },
        {
          "indexed": false,
          "internalType": "uint256",
          "name": "amount",
          "type": "uint256"
        }
      ],
      "name": "PrizeClaimed",
      "type": "event"
    },
    {
      "anonymous": false,
      "inputs": [
        {
          "indexed": true,
          "internalType": "address",
          "name": "buyer",
          "type": "address"
        },
        {
          "indexed": false,
          "internalType": "uint8",
          "name": "ticket",
          "type": "uint8"
        }
      ],
      "name": "TicketPurchased",
      "type": "event"
    },
    {
      "anonymous": false,
      "inputs": [
        {
          "indexed": true,
          "internalType": "address",
          "name": "winner",
          "type": "address"
        },
        {
          "indexed": false,
          "internalType": "uint8",
          "name": "winningNumber",
          "type": "uint8"
        }
      ],
      "name": "WinnerDrawn",
      "type": "event"
    },
    {
      "inputs": [],
      "name": "admin",
      "outputs": [
        {
          "internalType": "address",
          "name": "",
          "type": "address"
        }
      ],
      "stateMutability": "view",
      "type": "function"
    },
    {
      "inputs": [
        {
          "internalType": "uint8",
          "name": "_ticketNumber",
          "type": "uint8"
        }
      ],
      "name": "buyTicket",
      "outputs": [],
      "stateMutability": "payable",
      "type": "function"
    },
    {
      "inputs": [
        {
          "internalType": "uint256",
          "name": "_roundIndex",
          "type": "uint256"
        }
      ],
      "name": "claimPastPrize",
      "outputs": [],
      "stateMutability": "nonpayable",
      "type": "function"
    },
    {
      "inputs": [],
      "name": "claimPrize",
      "outputs": [],
      "stateMutability": "nonpayable",
      "type": "function"
    },
    {
      "inputs": [],
      "name": "drawWinner",
      "outputs": [],
      "stateMutability": "nonpayable",
      "type": "function"
    },
    {
      "inputs": [],
      "name": "getBalance",
      "outputs": [
        {
          "internalType": "uint256",
          "name": "",
          "type": "uint256"
        }
      ],
      "stateMutability": "view",
      "type": "function"
    },
    {
      "inputs": [],
      "name": "getMyTicket",
      "outputs": [
        {
          "internalType": "uint8",
          "name": "",
          "type": "uint8"
        }
      ],
      "stateMutability": "view",
      "type": "function"
    },
    {
      "inputs": [],
      "name": "getParticipantCount",
      "outputs": [
        {
          "internalType": "uint256",
          "name": "",
          "type": "uint256"
        }
      ],
      "stateMutability": "view",
      "type": "function"
    },
    {
      "inputs": [],
      "name": "getPastRoundsLength",
      "outputs": [
        {
          "internalType": "uint256",
          "name": "",
          "type": "uint256"
        }
      ],
      "stateMutability": "view",
      "type": "function"
    },
    {
      "inputs": [],
      "name": "isDrawn",
      "outputs": [
        {
          "internalType": "bool",
          "name": "",
          "type": "bool"
        }
      ],
      "stateMutability": "view",
      "type": "function"
    },
    {
      "inputs": [],
      "name": "lastDrawTime",
      "outputs": [
        {
          "internalType": "uint256",
          "name": "",
          "type": "uint256"
        }
      ],
      "stateMutability": "view",
      "type": "function"
    },
    {
      "inputs": [
        {
          "internalType": "uint256",
          "name": "",
          "type": "uint256"
        }
      ],
      "name": "participants",
      "outputs": [
        {
          "internalType": "address",
          "name": "",
          "type": "address"
        }
      ],
      "stateMutability": "view",
      "type": "function"
    },
    {
      "inputs": [
        {
          "internalType": "uint256",
          "name": "",
          "type": "uint256"
        }
      ],
      "name": "pastRounds",
      "outputs": [
        {
          "internalType": "address",
          "name": "winner",
          "type": "address"
        },
        {
          "internalType": "uint256",
          "name": "prize",
          "type": "uint256"
        },
        {
          "internalType": "uint256",
          "name": "drawTime",
          "type": "uint256"
        },
        {
          "internalType": "bool",
          "name": "claimed",
          "type": "bool"
        }
      ],
      "stateMutability": "view",
      "type": "function"
    },
    {
      "inputs": [],
      "name": "startNewRound",
      "outputs": [],
      "stateMutability": "nonpayable",
      "type": "function"
    },
    {
      "inputs": [],
      "name": "ticketPrice",
      "outputs": [
        {
          "internalType": "uint256",
          "name": "",
          "type": "uint256"
        }
      ],
      "stateMutability": "view",
      "type": "function"
    },
    {
      "inputs": [],
      "name": "winner",
      "outputs": [
        {
          "internalType": "address",
          "name": "",
          "type": "address"
        }
      ],
      "stateMutability": "view",
      "type": "function"
    }
  ],
  "bytecode": "0x6080604052655af3107a4000600255348015610019575f80fd5b503360045f6101000a81548173ffffffffffffffffffffffffffffffffffffffff021916908373ffffffffffffffffffffffffffffffffffffffff160217905550611a0d806100675f395ff3fe6080604052600436106100f2575f3560e01c80635cbbd63511610089578063bd85948c11610058578063bd85948c146102c8578063dfbf53ae146102de578063f851a44014610308578063fd9ba02414610332576100f2565b80635cbbd6351461024857806370740ac914610272578063ad60572914610288578063b2185bb1146102b2576100f2565b806335c1d349116100c557806335c1d349146101905780633c2bcadc146101cc5780633f7daf81146101f65780635b0df84e14610220576100f2565b8063023697f0146100f657806312065fe0146101125780631209b1f61461013c57806313cd372e14610166575b5f80fd5b610110600480360381019061010b9190611209565b610371565b005b34801561011d575f80fd5b50610126610620565b604051610133919061124c565b60405180910390f35b348015610147575f80fd5b50610150610627565b60405161015d919061124c565b60405180910390f35b348015610171575f80fd5b5061017a61062d565b604051610187919061124c565b60405180910390f35b34801561019b575f80fd5b506101b660048036038101906101b1919061128f565b610639565b6040516101c391906112f9565b60405180910390f35b3480156101d7575f80fd5b506101e0610674565b6040516101ed919061132c565b60405180910390f35b348015610201575f80fd5b5061020a610687565b6040516102179190611354565b60405180910390f35b34801561022b575f80fd5b506102466004803603810190610241919061128f565b6106d6565b005b348015610253575f80fd5b5061025c610976565b604051610269919061124c565b60405180910390f35b34801561027d575f80fd5b5061028661097c565b005b348015610293575f80fd5b5061029c610bd1565b6040516102a9919061124c565b60405180910390f35b3480156102bd575f80fd5b506102c6610bdd565b005b3480156102d3575f80fd5b506102dc610fd9565b005b3480156102e9575f80fd5b506102f26110e6565b6040516102ff91906112f9565b60405180910390f35b348015610313575f80fd5b5061031c61110b565b60405161032991906112f9565b60405180910390f35b34801561033d575f80fd5b506103586004803603810190610353919061128f565b611130565b604051610368949392919061136d565b60405180910390f35b60025434146103b5576040517f08c379a00000000000000000000000000000000000000000000000000000000081526004016103ac9061140a565b60405180910390fd5b600160149054906101000a900460ff1615610405576040517f08c379a00000000000000000000000000000000000000000000000000000000081526004016103fc90611472565b60405180910390fd5b60018160ff161015801561041d575060648160ff1611155b61045c576040517f08c379a0000000000000000000000000000000000000000000000000000000008152600401610453906114da565b60405180910390fd5b805f803373ffffffffffffffffffffffffffffffffffffffff1673ffffffffffffffffffffffffffffffffffffffff1681526020019081526020015f205f6101000a81548160ff021916908360ff1602179055505f805b600380549050811015610544573373ffffffffffffffffffffffffffffffffffffffff16600382815481106104eb576104ea6114f8565b5b905f5260205f20015f9054906101000a900473ffffffffffffffffffffffffffffffffffffffff1673ffffffffffffffffffffffffffffffffffffffff16036105375760019150610544565b80806001019150506104b3565b50806105ab57600333908060018154018082558091505060019003905f5260205f20015f9091909190916101000a81548173ffffffffffffffffffffffffffffffffffffffff021916908373ffffffffffffffffffffffffffffffffffffffff1602179055505b60016003805490501480156105c157505f600554145b156105ce57426005819055505b3373ffffffffffffffffffffffffffffffffffffffff167f544a428276e01bd3774fe90de75fee1b2b8bd04d8e999814d59efaa3b70318e7836040516106149190611354565b60405180910390a25050565b5f47905090565b60025481565b5f600680549050905090565b60038181548110610648575f80fd5b905f5260205f20015f915054906101000a900473ffffffffffffffffffffffffffffffffffffffff1681565b600160149054906101000a900460ff1681565b5f805f3373ffffffffffffffffffffffffffffffffffffffff1673ffffffffffffffffffffffffffffffffffffffff1681526020019081526020015f205f9054906101000a900460ff16905090565b600680549050811061071d576040517f08c379a00000000000000000000000000000000000000000000000000000000081526004016107149061156f565b60405180910390fd5b60068181548110610731576107306114f8565b5b905f5260205f2090600402015f015f9054906101000a900473ffffffffffffffffffffffffffffffffffffffff1673ffffffffffffffffffffffffffffffffffffffff163373ffffffffffffffffffffffffffffffffffffffff16146107cc576040517f08c379a00000000000000000000000000000000000000000000000000000000081526004016107c3906115d7565b60405180910390fd5b600681815481106107e0576107df6114f8565b5b905f5260205f2090600402016003015f9054906101000a900460ff161561083c576040517f08c379a00000000000000000000000000000000000000000000000000000000081526004016108339061163f565b60405180910390fd5b5f60068281548110610851576108506114f8565b5b905f5260205f2090600402016001015490505f81116108a5576040517f08c379a000000000000000000000000000000000000000000000000000000000815260040161089c906116a7565b60405180910390fd5b6001600683815481106108bb576108ba6114f8565b5b905f5260205f2090600402016003015f6101000a81548160ff0219169083151502179055503373ffffffffffffffffffffffffffffffffffffffff166108fc8290811502906040515f60405180830381858888f19350505050158015610923573d5f803e3d5ffd5b503373ffffffffffffffffffffffffffffffffffffffff167f95681e512bc0fe659e195e06c283eada494316f3d801213e48e7101af92bf7708260405161096a919061124c565b60405180910390a25050565b60055481565b600160149054906101000a900460ff166109cb576040517f08c379a00000000000000000000000000000000000000000000000000000000081526004016109c29061170f565b60405180910390fd5b60015f9054906101000a900473ffffffffffffffffffffffffffffffffffffffff1673ffffffffffffffffffffffffffffffffffffffff163373ffffffffffffffffffffffffffffffffffffffff1614610a5a576040517f08c379a0000000000000000000000000000000000000000000000000000000008152600401610a5190611777565b60405180910390fd5b5f4790505f8111610aa0576040517f08c379a0000000000000000000000000000000000000000000000000000000008152600401610a97906116a7565b60405180910390fd5b60015f9054906101000a900473ffffffffffffffffffffffffffffffffffffffff1673ffffffffffffffffffffffffffffffffffffffff166108fc8290811502906040515f60405180830381858888f19350505050158015610b04573d5f803e3d5ffd5b505f6006805490501115610b5f57600160066001600680549050610b2891906117c2565b81548110610b3957610b386114f8565b5b905f5260205f2090600402016003015f6101000a81548160ff0219169083151502179055505b60015f9054906101000a900473ffffffffffffffffffffffffffffffffffffffff1673ffffffffffffffffffffffffffffffffffffffff167f95681e512bc0fe659e195e06c283eada494316f3d801213e48e7101af92bf77082604051610bc6919061124c565b60405180910390a250565b5f600380549050905090565b600160149054906101000a900460ff1615610c2d576040517f08c379a0000000000000000000000000000000000000000000000000000000008152600401610c2490611472565b60405180910390fd5b5f60038054905011610c74576040517f08c379a0000000000000000000000000000000000000000000000000000000008152600401610c6b9061183f565b60405180910390fd5b60045f9054906101000a900473ffffffffffffffffffffffffffffffffffffffff1673ffffffffffffffffffffffffffffffffffffffff163373ffffffffffffffffffffffffffffffffffffffff161480610cde5750610258600554610cda919061185d565b4210155b610d1d576040517f08c379a0000000000000000000000000000000000000000000000000000000008152600401610d1490611900565b60405180910390fd5b5f6003805490504244600380549050604051602001610d3e9392919061193e565b604051602081830303815290604052805190602001205f1c610d6091906119a7565b905060038181548110610d7657610d756114f8565b5b905f5260205f20015f9054906101000a900473ffffffffffffffffffffffffffffffffffffffff1660015f6101000a81548173ffffffffffffffffffffffffffffffffffffffff021916908373ffffffffffffffffffffffffffffffffffffffff16021790555060018060146101000a81548160ff021916908315150217905550426005819055506006604051806080016040528060015f9054906101000a900473ffffffffffffffffffffffffffffffffffffffff1673ffffffffffffffffffffffffffffffffffffffff1681526020014781526020014281526020015f1515815250908060018154018082558091505060019003905f5260205f2090600402015f909190919091505f820151815f015f6101000a81548173ffffffffffffffffffffffffffffffffffffffff021916908373ffffffffffffffffffffffffffffffffffffffff16021790555060208201518160010155604082015181600201556060820151816003015f6101000a81548160ff02191690831515021790555050505f805f60015f9054906101000a900473ffffffffffffffffffffffffffffffffffffffff1673ffffffffffffffffffffffffffffffffffffffff1673ffffffffffffffffffffffffffffffffffffffff1681526020019081526020015f205f9054906101000a900460ff16905060015f9054906101000a900473ffffffffffffffffffffffffffffffffffffffff1673ffffffffffffffffffffffffffffffffffffffff167f097f81796acde1f8350124eadba95449daef1cfdbc53c651caa49b7b1673a0cf82604051610fcd9190611354565b60405180910390a25050565b600160149054906101000a900460ff16611028576040517f08c379a000000000000000000000000000000000000000000000000000000000815260040161101f9061170f565b60405180910390fd5b5f600160146101000a81548160ff0219169083151502179055505f60015f6101000a81548173ffffffffffffffffffffffffffffffffffffffff021916908373ffffffffffffffffffffffffffffffffffffffff1602179055504260058190555060035f6110969190611196565b3373ffffffffffffffffffffffffffffffffffffffff167f98ab7e823882180c9f7d9ed464e68d4f8fbe0dde6ac4e6f9ef956dbc424e6192426040516110dc919061124c565b60405180910390a2565b60015f9054906101000a900473ffffffffffffffffffffffffffffffffffffffff1681565b60045f9054906101000a900473ffffffffffffffffffffffffffffffffffffffff1681565b6006818154811061113f575f80fd5b905f5260205f2090600402015f91509050805f015f9054906101000a900473ffffffffffffffffffffffffffffffffffffffff1690806001015490806002015490806003015f9054906101000a900460ff16905084565b5080545f8255905f5260205f20908101906111b191906111b4565b50565b5b808211156111cb575f815f9055506001016111b5565b5090565b5f80fd5b5f60ff82169050919050565b6111e8816111d3565b81146111f2575f80fd5b50565b5f81359050611203816111df565b92915050565b5f6020828403121561121e5761121d6111cf565b5b5f61122b848285016111f5565b91505092915050565b5f819050919050565b61124681611234565b82525050565b5f60208201905061125f5f83018461123d565b92915050565b61126e81611234565b8114611278575f80fd5b50565b5f8135905061128981611265565b92915050565b5f602082840312156112a4576112a36111cf565b5b5f6112b18482850161127b565b91505092915050565b5f73ffffffffffffffffffffffffffffffffffffffff82169050919050565b5f6112e3826112ba565b9050919050565b6112f3816112d9565b82525050565b5f60208201905061130c5f8301846112ea565b92915050565b5f8115159050919050565b61132681611312565b82525050565b5f60208201905061133f5f83018461131d565b92915050565b61134e816111d3565b82525050565b5f6020820190506113675f830184611345565b92915050565b5f6080820190506113805f8301876112ea565b61138d602083018661123d565b61139a604083018561123d565b6113a7606083018461131d565b95945050505050565b5f82825260208201905092915050565b7f496e636f7272656374207469636b6574207072696365000000000000000000005f82015250565b5f6113f46016836113b0565b91506113ff826113c0565b602082019050919050565b5f6020820190508181035f830152611421816113e8565b9050919050565b7f4c6f747465727920616c726561647920647261776e00000000000000000000005f82015250565b5f61145c6015836113b0565b915061146782611428565b602082019050919050565b5f6020820190508181035f83015261148981611450565b9050919050565b7f5469636b6574206d757374206265206265747765656e20312d313030000000005f82015250565b5f6114c4601c836113b0565b91506114cf82611490565b602082019050919050565b5f6020820190508181035f8301526114f1816114b8565b9050919050565b7f4e487b71000000000000000000000000000000000000000000000000000000005f52603260045260245ffd5b7f496e76616c696420726f756e6420696e646578000000000000000000000000005f82015250565b5f6115596013836113b0565b915061156482611525565b602082019050919050565b5f6020820190508181035f8301526115868161154d565b9050919050565b7f4e6f74207468652077696e6e6572206f66207468697320726f756e64000000005f82015250565b5f6115c1601c836113b0565b91506115cc8261158d565b602082019050919050565b5f6020820190508181035f8301526115ee816115b5565b9050919050565b7f5072697a6520616c726561647920636c61696d656400000000000000000000005f82015250565b5f6116296015836113b0565b9150611634826115f5565b602082019050919050565b5f6020820190508181035f8301526116568161161d565b9050919050565b7f4e6f207072697a6520746f20636c61696d0000000000000000000000000000005f82015250565b5f6116916011836113b0565b915061169c8261165d565b602082019050919050565b5f6020820190508181035f8301526116be81611685565b9050919050565b7f4c6f7474657279206e6f7420647261776e2079657400000000000000000000005f82015250565b5f6116f96015836113b0565b9150611704826116c5565b602082019050919050565b5f6020820190508181035f830152611726816116ed565b9050919050565b7f4e6f74207468652077696e6e65720000000000000000000000000000000000005f82015250565b5f611761600e836113b0565b915061176c8261172d565b602082019050919050565b5f6020820190508181035f83015261178e81611755565b9050919050565b7f4e487b71000000000000000000000000000000000000000000000000000000005f52601160045260245ffd5b5f6117cc82611234565b91506117d783611234565b92508282039050818111156117ef576117ee611795565b5b92915050565b7f4e6f207061727469636970616e747300000000000000000000000000000000005f82015250565b5f611829600f836113b0565b9150611834826117f5565b602082019050919050565b5f6020820190508181035f8301526118568161181d565b9050919050565b5f61186782611234565b915061187283611234565b925082820190508082111561188a57611889611795565b5b92915050565b7f44726177206e6f7420617661696c61626c6520796574206f72206e6f742061645f8201527f6d696e0000000000000000000000000000000000000000000000000000000000602082015250565b5f6118ea6023836113b0565b91506118f582611890565b604082019050919050565b5f6020820190508181035f830152611917816118de565b9050919050565b5f819050919050565b61193861193382611234565b61191e565b82525050565b5f6119498286611927565b6020820191506119598285611927565b6020820191506119698284611927565b602082019150819050949350505050565b7f4e487b71000000000000000000000000000000000000000000000000000000005f52601260045260245ffd5b5f6119b182611234565b91506119bc83611234565b9250826119cc576119cb61197a565b5b82820690509291505056fea26469706673582212206ce33608968dd14568ae51e454e0e05d228f9e31efc5502043bb8e1089c105ae64736f6c63430008180033",
  "linkReferences": {},
  "deployedLinkReferences": {},
  "immutableReferences": {},
  "inputSourceName": "project/contracts/ConfidentialLottery.sol",
  "buildInfoId": "solc-0_8_24-c9b2d9d78ebdce5bfd5bd11f18111a6f0e3eff7f"
}