{
  "_format": "hh3-artifact-1",
  "contractName": "ConfidentialLottery",
  "sourceName": "contracts/ConfidentialLottery.sol",
  "abi": [
    {
      "anonymous": false,
      "inputs": [
        {
          "indexed": true,
          "internalType": "address",
          "name": "winner",
          "type": "address"
        },
        {
          "indexed": false,
          "internalType": "uint256",
          "name": "amount",
          "type": "uint256"
        }
      ],
      "name": "PrizeClaimed",
      "type": "event"
    },
    {
      "anonymous": false,
      "inputs": [
        {
          "indexed": true,
          "internalType": "address",
          "name": "buyer",
          "type": "address"
        },
        {
          "indexed": false,
          "internalType": "uint8",
          "name": "ticket",
          "type": "uint8"
        }
      ],
      "name": "TicketPurchased",
      "type": "event"
    },
    {
      "anonymous": false,
      "inputs": [
        {
          "indexed": true,
          "internalType": "address",
          "name": "winner",
          "type": "address"
        },
        {
          "indexed": false,
          "internalType": "uint8",
          "name": "winningNumber",
          "type": "uint8"
        }
      ],
      "name": "WinnerDrawn",
      "type": "event"
    },
    {
      "inputs": [
        {
          "internalType": "uint8",
          "name": "_ticketNumber",
          "type": "uint8"
        }
      ],
      "name": "buyTicket",
      "outputs": [],
      "stateMutability": "payable",
      "type": "function"
    },
    {
      "inputs": [],
      "name": "claimPrize",
      "outputs": [],
      "stateMutability": "nonpayable",
      "type": "function"
    },
    {
      "inputs": [],
      "name": "drawWinner",
      "outputs": [],
      "stateMutability": "nonpayable",
      "type": "function"
    },
    {
      "inputs": [],
      "name": "getBalance",
      "outputs": [
        {
          "internalType": "uint256",
          "name": "",
          "type": "uint256"
        }
      ],
      "stateMutability": "view",
      "type": "function"
    },
    {
      "inputs": [],
      "name": "getMyTicket",
      "outputs": [
        {
          "internalType": "uint8",
          "name": "",
          "type": "uint8"
        }
      ],
      "stateMutability": "view",
      "type": "function"
    },
    {
      "inputs": [],
      "name": "getParticipantCount",
      "outputs": [
        {
          "internalType": "uint256",
          "name": "",
          "type": "uint256"
        }
      ],
      "stateMutability": "view",
      "type": "function"
    },
    {
      "inputs": [],
      "name": "isDrawn",
      "outputs": [
        {
          "internalType": "bool",
          "name": "",
          "type": "bool"
        }
      ],
      "stateMutability": "view",
      "type": "function"
    },
    {
      "inputs": [
        {
          "internalType": "uint256",
          "name": "",
          "type": "uint256"
        }
      ],
      "name": "participants",
      "outputs": [
        {
          "internalType": "address",
          "name": "",
          "type": "address"
        }
      ],
      "stateMutability": "view",
      "type": "function"
    },
    {
      "inputs": [],
      "name": "ticketPrice",
      "outputs": [
        {
          "internalType": "uint256",
          "name": "",
          "type": "uint256"
        }
      ],
      "stateMutability": "view",
      "type": "function"
    },
    {
      "inputs": [],
      "name": "winner",
      "outputs": [
        {
          "internalType": "address",
          "name": "",
          "type": "address"
        }
      ],
      "stateMutability": "view",
      "type": "function"
    }
  ],
  "bytecode": "0x6080604052662386f26fc1000060025534801561001a575f80fd5b50610f69806100285f395ff3fe608060405260043610610090575f3560e01c80633f7daf81116100585780633f7daf811461016a57806370740ac914610194578063ad605729146101aa578063b2185bb1146101d4578063dfbf53ae146101ea57610090565b8063023697f01461009457806312065fe0146100b05780631209b1f6146100da57806335c1d349146101045780633c2bcadc14610140575b5f80fd5b6100ae60048036038101906100a99190610a01565b610214565b005b3480156100bb575f80fd5b506100c46104a0565b6040516100d19190610a44565b60405180910390f35b3480156100e5575f80fd5b506100ee6104a7565b6040516100fb9190610a44565b60405180910390f35b34801561010f575f80fd5b5061012a60048036038101906101259190610a87565b6104ad565b6040516101379190610af1565b60405180910390f35b34801561014b575f80fd5b506101546104e8565b6040516101619190610b24565b60405180910390f35b348015610175575f80fd5b5061017e6104fb565b60405161018b9190610b4c565b60405180910390f35b34801561019f575f80fd5b506101a861054a565b005b3480156101b5575f80fd5b506101be610745565b6040516101cb9190610a44565b60405180910390f35b3480156101df575f80fd5b506101e8610751565b005b3480156101f5575f80fd5b506101fe6109a2565b60405161020b9190610af1565b60405180910390f35b6002543414610258576040517f08c379a000000000000000000000000000000000000000000000000000000000815260040161024f90610bbf565b60405180910390fd5b600160149054906101000a900460ff16156102a8576040517f08c379a000000000000000000000000000000000000000000000000000000000815260040161029f90610c27565b60405180910390fd5b60018160ff16101580156102c0575060648160ff1611155b6102ff576040517f08c379a00000000000000000000000000000000000000000000000000000000081526004016102f690610c8f565b60405180910390fd5b805f803373ffffffffffffffffffffffffffffffffffffffff1673ffffffffffffffffffffffffffffffffffffffff1681526020019081526020015f205f6101000a81548160ff021916908360ff1602179055505f805b6003805490508110156103e7573373ffffffffffffffffffffffffffffffffffffffff166003828154811061038e5761038d610cad565b5b905f5260205f20015f9054906101000a900473ffffffffffffffffffffffffffffffffffffffff1673ffffffffffffffffffffffffffffffffffffffff16036103da57600191506103e7565b8080600101915050610356565b508061044e57600333908060018154018082558091505060019003905f5260205f20015f9091909190916101000a81548173ffffffffffffffffffffffffffffffffffffffff021916908373ffffffffffffffffffffffffffffffffffffffff1602179055505b3373ffffffffffffffffffffffffffffffffffffffff167f544a428276e01bd3774fe90de75fee1b2b8bd04d8e999814d59efaa3b70318e7836040516104949190610b4c565b60405180910390a25050565b5f47905090565b60025481565b600381815481106104bc575f80fd5b905f5260205f20015f915054906101000a900473ffffffffffffffffffffffffffffffffffffffff1681565b600160149054906101000a900460ff1681565b5f805f3373ffffffffffffffffffffffffffffffffffffffff1673ffffffffffffffffffffffffffffffffffffffff1681526020019081526020015f205f9054906101000a900460ff16905090565b600160149054906101000a900460ff16610599576040517f08c379a000000000000000000000000000000000000000000000000000000000815260040161059090610d24565b60405180910390fd5b60015f9054906101000a900473ffffffffffffffffffffffffffffffffffffffff1673ffffffffffffffffffffffffffffffffffffffff163373ffffffffffffffffffffffffffffffffffffffff1614610628576040517f08c379a000000000000000000000000000000000000000000000000000000000815260040161061f90610d8c565b60405180910390fd5b5f4790505f811161066e576040517f08c379a000000000000000000000000000000000000000000000000000000000815260040161066590610df4565b60405180910390fd5b60015f9054906101000a900473ffffffffffffffffffffffffffffffffffffffff1673ffffffffffffffffffffffffffffffffffffffff166108fc8290811502906040515f60405180830381858888f193505050501580156106d2573d5f803e3d5ffd5b5060015f9054906101000a900473ffffffffffffffffffffffffffffffffffffffff1673ffffffffffffffffffffffffffffffffffffffff167f95681e512bc0fe659e195e06c283eada494316f3d801213e48e7101af92bf7708260405161073a9190610a44565b60405180910390a250565b5f600380549050905090565b600160149054906101000a900460ff16156107a1576040517f08c379a000000000000000000000000000000000000000000000000000000000815260040161079890610c27565b60405180910390fd5b5f600380549050116107e8576040517f08c379a00000000000000000000000000000000000000000000000000000000081526004016107df90610e5c565b60405180910390fd5b5f600380549050424460038054905060405160200161080993929190610e9a565b604051602081830303815290604052805190602001205f1c61082b9190610f03565b90506003818154811061084157610840610cad565b5b905f5260205f20015f9054906101000a900473ffffffffffffffffffffffffffffffffffffffff1660015f6101000a81548173ffffffffffffffffffffffffffffffffffffffff021916908373ffffffffffffffffffffffffffffffffffffffff16021790555060018060146101000a81548160ff0219169083151502179055505f805f60015f9054906101000a900473ffffffffffffffffffffffffffffffffffffffff1673ffffffffffffffffffffffffffffffffffffffff1673ffffffffffffffffffffffffffffffffffffffff1681526020019081526020015f205f9054906101000a900460ff16905060015f9054906101000a900473ffffffffffffffffffffffffffffffffffffffff1673ffffffffffffffffffffffffffffffffffffffff167f097f81796acde1f8350124eadba95449daef1cfdbc53c651caa49b7b1673a0cf826040516109969190610b4c565b60405180910390a25050565b60015f9054906101000a900473ffffffffffffffffffffffffffffffffffffffff1681565b5f80fd5b5f60ff82169050919050565b6109e0816109cb565b81146109ea575f80fd5b50565b5f813590506109fb816109d7565b92915050565b5f60208284031215610a1657610a156109c7565b5b5f610a23848285016109ed565b91505092915050565b5f819050919050565b610a3e81610a2c565b82525050565b5f602082019050610a575f830184610a35565b92915050565b610a6681610a2c565b8114610a70575f80fd5b50565b5f81359050610a8181610a5d565b92915050565b5f60208284031215610a9c57610a9b6109c7565b5b5f610aa984828501610a73565b91505092915050565b5f73ffffffffffffffffffffffffffffffffffffffff82169050919050565b5f610adb82610ab2565b9050919050565b610aeb81610ad1565b82525050565b5f602082019050610b045f830184610ae2565b92915050565b5f8115159050919050565b610b1e81610b0a565b82525050565b5f602082019050610b375f830184610b15565b92915050565b610b46816109cb565b82525050565b5f602082019050610b5f5f830184610b3d565b92915050565b5f82825260208201905092915050565b7f496e636f7272656374207469636b6574207072696365000000000000000000005f82015250565b5f610ba9601683610b65565b9150610bb482610b75565b602082019050919050565b5f6020820190508181035f830152610bd681610b9d565b9050919050565b7f4c6f747465727920616c726561647920647261776e00000000000000000000005f82015250565b5f610c11601583610b65565b9150610c1c82610bdd565b602082019050919050565b5f6020820190508181035f830152610c3e81610c05565b9050919050565b7f5469636b6574206d757374206265206265747765656e20312d313030000000005f82015250565b5f610c79601c83610b65565b9150610c8482610c45565b602082019050919050565b5f6020820190508181035f830152610ca681610c6d565b9050919050565b7f4e487b71000000000000000000000000000000000000000000000000000000005f52603260045260245ffd5b7f4c6f7474657279206e6f7420647261776e2079657400000000000000000000005f82015250565b5f610d0e601583610b65565b9150610d1982610cda565b602082019050919050565b5f6020820190508181035f830152610d3b81610d02565b9050919050565b7f4e6f74207468652077696e6e65720000000000000000000000000000000000005f82015250565b5f610d76600e83610b65565b9150610d8182610d42565b602082019050919050565b5f6020820190508181035f830152610da381610d6a565b9050919050565b7f4e6f207072697a6520746f20636c61696d0000000000000000000000000000005f82015250565b5f610dde601183610b65565b9150610de982610daa565b602082019050919050565b5f6020820190508181035f830152610e0b81610dd2565b9050919050565b7f4e6f207061727469636970616e747300000000000000000000000000000000005f82015250565b5f610e46600f83610b65565b9150610e5182610e12565b602082019050919050565b5f6020820190508181035f830152610e7381610e3a565b9050919050565b5f819050919050565b610e94610e8f82610a2c565b610e7a565b82525050565b5f610ea58286610e83565b602082019150610eb58285610e83565b602082019150610ec58284610e83565b602082019150819050949350505050565b7f4e487b71000000000000000000000000000000000000000000000000000000005f52601260045260245ffd5b5f610f0d82610a2c565b9150610f1883610a2c565b925082610f2857610f27610ed6565b5b82820690509291505056fea264697066735822122015c765eafbb8485b8a235b6621965b35ed57a70fd1d45317cacba0321dfa897464736f6c63430008180033",
  "linkReferences": {},
  "deployedLinkReferences": {},
  "immutableReferences": {},
  "inputSourceName": "project/contracts/ConfidentialLottery.sol",
  "buildInfoId": "solc-0_8_24-359f035b12a5d9bd45a7cdfeda650dca255a1ae4"
}