{"project/contracts/ConfidentialLottery.sol":{"ConfidentialLottery":{"abi":[{"inputs":[],"stateMutability":"nonpayable","type":"constructor"},{"anonymous":false,"inputs":[{"indexed":true,"internalType":"address","name":"admin","type":"address"},{"indexed":false,"internalType":"uint256","name":"timestamp","type":"uint256"}],"name":"LotteryReset","type":"event"},{"anonymous":false,"inputs":[{"indexed":true,"internalType":"address","name":"winner","type":"address"},{"indexed":false,"internalType":"uint256","name":"amount","type":"uint256"}],"name":"PrizeClaimed","type":"event"},{"anonymous":false,"inputs":[{"indexed":true,"internalType":"address","name":"buyer","type":"address"},{"indexed":false,"internalType":"uint8","name":"ticket","type":"uint8"}],"name":"TicketPurchased","type":"event"},{"anonymous":false,"inputs":[{"indexed":true,"internalType":"address","name":"winner","type":"address"},{"indexed":false,"internalType":"uint8","name":"winningNumber","type":"uint8"}],"name":"WinnerDrawn","type":"event"},{"inputs":[],"name":"admin","outputs":[{"internalType":"address","name":"","type":"address"}],"stateMutability":"view","type":"function"},{"inputs":[{"internalType":"uint8","name":"_ticketNumber","type":"uint8"}],"name":"buyTicket","outputs":[],"stateMutability":"payable","type":"function"},{"inputs":[{"internalType":"uint256","name":"_roundIndex","type":"uint256"}],"name":"claimPastPrize","outputs":[],"stateMutability":"nonpayable","type":"function"},{"inputs":[],"name":"claimPrize","outputs":[],"stateMutability":"nonpayable","type":"function"},{"inputs":[],"name":"drawWinner","outputs":[],"stateMutability":"nonpayable","type":"function"},{"inputs":[],"name":"getBalance","outputs":[{"internalType":"uint256","name":"","type":"uint256"}],"stateMutability":"view","type":"function"},{"inputs":[],"name":"getMyTicket","outputs":[{"internalType":"uint8","name":"","type":"uint8"}],"stateMutability":"view","type":"function"},{"inputs":[],"name":"getParticipantCount","outputs":[{"internalType":"uint256","name":"","type":"uint256"}],"stateMutability":"view","type":"function"},{"inputs":[],"name":"getPastRoundsLength","outputs":[{"internalType":"uint256","name":"","type":"uint256"}],"stateMutability":"view","type":"function"},{"inputs":[],"name":"isDrawn","outputs":[{"internalType":"bool","name":"","type":"bool"}],"stateMutability":"view","type":"function"},{"inputs":[],"name":"lastDrawTime","outputs":[{"internalType":"uint256","name":"","type":"uint256"}],"stateMutability":"view","type":"function"},{"inputs":[{"internalType":"uint256","name":"","type":"uint256"}],"name":"participants","outputs":[{"internalType":"address","name":"","type":"address"}],"stateMutability":"view","type":"function"},{"inputs":[{"internalType":"uint256","name":"","type":"uint256"}],"name":"pastRounds","outputs":[{"internalType":"address","name":"winner","type":"address"},{"internalType":"uint256","name":"prize","type":"uint256"},{"internalType":"uint256","name":"drawTime","type":"uint256"},{"internalType":"bool","name":"claimed","type":"bool"}],"stateMutability":"view","type":"function"},{"inputs":[],"name":"startNewRound","outputs":[],"stateMutability":"nonpayable","type":"function"},{"inputs":[],"name":"ticketPrice","outputs":[{"internalType":"uint256","name":"","type":"uint256"}],"stateMutability":"view","type":"function"},{"inputs":[],"name":"winner","outputs":[{"internalType":"address","name":"","type":"address"}],"stateMutability":"view","type":"function"}],"evm":{"bytecode":{"linkReferences":{},"object":"6080604052655af3107a4000600255348015610019575f80fd5b503360045f6101000a81548173ffffffffffffffffffffffffffffffffffffffff021916908373ffffffffffffffffffffffffffffffffffffffff160217905550611a0d806100675f395ff3fe6080604052600436106100f2575f3560e01c80635cbbd63511610089578063bd85948c11610058578063bd85948c146102c8578063dfbf53ae146102de578063f851a44014610308578063fd9ba02414610332576100f2565b80635cbbd6351461024857806370740ac914610272578063ad60572914610288578063b2185bb1146102b2576100f2565b806335c1d349116100c557806335c1d349146101905780633c2bcadc146101cc5780633f7daf81146101f65780635b0df84e14610220576100f2565b8063023697f0146100f657806312065fe0146101125780631209b1f61461013c57806313cd372e14610166575b5f80fd5b610110600480360381019061010b9190611209565b610371565b005b34801561011d575f80fd5b50610126610620565b604051610133919061124c565b60405180910390f35b348015610147575f80fd5b50610150610627565b60405161015d919061124c565b60405180910390f35b348015610171575f80fd5b5061017a61062d565b604051610187919061124c565b60405180910390f35b34801561019b575f80fd5b506101b660048036038101906101b1919061128f565b610639565b6040516101c391906112f9565b60405180910390f35b3480156101d7575f80fd5b506101e0610674565b6040516101ed919061132c565b60405180910390f35b348015610201575f80fd5b5061020a610687565b6040516102179190611354565b60405180910390f35b34801561022b575f80fd5b506102466004803603810190610241919061128f565b6106d6565b005b348015610253575f80fd5b5061025c610976565b604051610269919061124c565b60405180910390f35b34801561027d575f80fd5b5061028661097c565b005b348015610293575f80fd5b5061029c610bd1565b6040516102a9919061124c565b60405180910390f35b3480156102bd575f80fd5b506102c6610bdd565b005b3480156102d3575f80fd5b506102dc610fd9565b005b3480156102e9575f80fd5b506102f26110e6565b6040516102ff91906112f9565b60405180910390f35b348015610313575f80fd5b5061031c61110b565b60405161032991906112f9565b60405180910390f35b34801561033d575f80fd5b506103586004803603810190610353919061128f565b611130565b604051610368949392919061136d565b60405180910390f35b60025434146103b5576040517f08c379a00000000000000000000000000000000000000000000000000000000081526004016103ac9061140a565b60405180910390fd5b600160149054906101000a900460ff1615610405576040517f08c379a00000000000000000000000000000000000000000000000000000000081526004016103fc90611472565b60405180910390fd5b60018160ff161015801561041d575060648160ff1611155b61045c576040517f08c379a0000000000000000000000000000000000000000000000000000000008152600401610453906114da565b60405180910390fd5b805f803373ffffffffffffffffffffffffffffffffffffffff1673ffffffffffffffffffffffffffffffffffffffff1681526020019081526020015f205f6101000a81548160ff021916908360ff1602179055505f805b600380549050811015610544573373ffffffffffffffffffffffffffffffffffffffff16600382815481106104eb576104ea6114f8565b5b905f5260205f20015f9054906101000a900473ffffffffffffffffffffffffffffffffffffffff1673ffffffffffffffffffffffffffffffffffffffff16036105375760019150610544565b80806001019150506104b3565b50806105ab57600333908060018154018082558091505060019003905f5260205f20015f9091909190916101000a81548173ffffffffffffffffffffffffffffffffffffffff021916908373ffffffffffffffffffffffffffffffffffffffff1602179055505b60016003805490501480156105c157505f600554145b156105ce57426005819055505b3373ffffffffffffffffffffffffffffffffffffffff167f544a428276e01bd3774fe90de75fee1b2b8bd04d8e999814d59efaa3b70318e7836040516106149190611354565b60405180910390a25050565b5f47905090565b60025481565b5f600680549050905090565b60038181548110610648575f80fd5b905f5260205f20015f915054906101000a900473ffffffffffffffffffffffffffffffffffffffff1681565b600160149054906101000a900460ff1681565b5f805f3373ffffffffffffffffffffffffffffffffffffffff1673ffffffffffffffffffffffffffffffffffffffff1681526020019081526020015f205f9054906101000a900460ff16905090565b600680549050811061071d576040517f08c379a00000000000000000000000000000000000000000000000000000000081526004016107149061156f565b60405180910390fd5b60068181548110610731576107306114f8565b5b905f5260205f2090600402015f015f9054906101000a900473ffffffffffffffffffffffffffffffffffffffff1673ffffffffffffffffffffffffffffffffffffffff163373ffffffffffffffffffffffffffffffffffffffff16146107cc576040517f08c379a00000000000000000000000000000000000000000000000000000000081526004016107c3906115d7565b60405180910390fd5b600681815481106107e0576107df6114f8565b5b905f5260205f2090600402016003015f9054906101000a900460ff161561083c576040517f08c379a00000000000000000000000000000000000000000000000000000000081526004016108339061163f565b60405180910390fd5b5f60068281548110610851576108506114f8565b5b905f5260205f2090600402016001015490505f81116108a5576040517f08c379a000000000000000000000000000000000000000000000000000000000815260040161089c906116a7565b60405180910390fd5b6001600683815481106108bb576108ba6114f8565b5b905f5260205f2090600402016003015f6101000a81548160ff0219169083151502179055503373ffffffffffffffffffffffffffffffffffffffff166108fc8290811502906040515f60405180830381858888f19350505050158015610923573d5f803e3d5ffd5b503373ffffffffffffffffffffffffffffffffffffffff167f95681e512bc0fe659e195e06c283eada494316f3d801213e48e7101af92bf7708260405161096a919061124c565b60405180910390a25050565b60055481565b600160149054906101000a900460ff166109cb576040517f08c379a00000000000000000000000000000000000000000000000000000000081526004016109c29061170f565b60405180910390fd5b60015f9054906101000a900473ffffffffffffffffffffffffffffffffffffffff1673ffffffffffffffffffffffffffffffffffffffff163373ffffffffffffffffffffffffffffffffffffffff1614610a5a576040517f08c379a0000000000000000000000000000000000000000000000000000000008152600401610a5190611777565b60405180910390fd5b5f4790505f8111610aa0576040517f08c379a0000000000000000000000000000000000000000000000000000000008152600401610a97906116a7565b60405180910390fd5b60015f9054906101000a900473ffffffffffffffffffffffffffffffffffffffff1673ffffffffffffffffffffffffffffffffffffffff166108fc8290811502906040515f60405180830381858888f19350505050158015610b04573d5f803e3d5ffd5b505f6006805490501115610b5f57600160066001600680549050610b2891906117c2565b81548110610b3957610b386114f8565b5b905f5260205f2090600402016003015f6101000a81548160ff0219169083151502179055505b60015f9054906101000a900473ffffffffffffffffffffffffffffffffffffffff1673ffffffffffffffffffffffffffffffffffffffff167f95681e512bc0fe659e195e06c283eada494316f3d801213e48e7101af92bf77082604051610bc6919061124c565b60405180910390a250565b5f600380549050905090565b600160149054906101000a900460ff1615610c2d576040517f08c379a0000000000000000000000000000000000000000000000000000000008152600401610c2490611472565b60405180910390fd5b5f60038054905011610c74576040517f08c379a0000000000000000000000000000000000000000000000000000000008152600401610c6b9061183f565b60405180910390fd5b60045f9054906101000a900473ffffffffffffffffffffffffffffffffffffffff1673ffffffffffffffffffffffffffffffffffffffff163373ffffffffffffffffffffffffffffffffffffffff161480610cde5750610258600554610cda919061185d565b4210155b610d1d576040517f08c379a0000000000000000000000000000000000000000000000000000000008152600401610d1490611900565b60405180910390fd5b5f6003805490504244600380549050604051602001610d3e9392919061193e565b604051602081830303815290604052805190602001205f1c610d6091906119a7565b905060038181548110610d7657610d756114f8565b5b905f5260205f20015f9054906101000a900473ffffffffffffffffffffffffffffffffffffffff1660015f6101000a81548173ffffffffffffffffffffffffffffffffffffffff021916908373ffffffffffffffffffffffffffffffffffffffff16021790555060018060146101000a81548160ff021916908315150217905550426005819055506006604051806080016040528060015f9054906101000a900473ffffffffffffffffffffffffffffffffffffffff1673ffffffffffffffffffffffffffffffffffffffff1681526020014781526020014281526020015f1515815250908060018154018082558091505060019003905f5260205f2090600402015f909190919091505f820151815f015f6101000a81548173ffffffffffffffffffffffffffffffffffffffff021916908373ffffffffffffffffffffffffffffffffffffffff16021790555060208201518160010155604082015181600201556060820151816003015f6101000a81548160ff02191690831515021790555050505f805f60015f9054906101000a900473ffffffffffffffffffffffffffffffffffffffff1673ffffffffffffffffffffffffffffffffffffffff1673ffffffffffffffffffffffffffffffffffffffff1681526020019081526020015f205f9054906101000a900460ff16905060015f9054906101000a900473ffffffffffffffffffffffffffffffffffffffff1673ffffffffffffffffffffffffffffffffffffffff167f097f81796acde1f8350124eadba95449daef1cfdbc53c651caa49b7b1673a0cf82604051610fcd9190611354565b60405180910390a25050565b600160149054906101000a900460ff16611028576040517f08c379a000000000000000000000000000000000000000000000000000000000815260040161101f9061170f565b60405180910390fd5b5f600160146101000a81548160ff0219169083151502179055505f60015f6101000a81548173ffffffffffffffffffffffffffffffffffffffff021916908373ffffffffffffffffffffffffffffffffffffffff1602179055504260058190555060035f6110969190611196565b3373ffffffffffffffffffffffffffffffffffffffff167f98ab7e823882180c9f7d9ed464e68d4f8fbe0dde6ac4e6f9ef956dbc424e6192426040516110dc919061124c565b60405180910390a2565b60015f9054906101000a900473ffffffffffffffffffffffffffffffffffffffff1681565b60045f9054906101000a900473ffffffffffffffffffffffffffffffffffffffff1681565b6006818154811061113f575f80fd5b905f5260205f2090600402015f91509050805f015f9054906101000a900473ffffffffffffffffffffffffffffffffffffffff1690806001015490806002015490806003015f9054906101000a900460ff16905084565b5080545f8255905f5260205f20908101906111b191906111b4565b50565b5b808211156111cb575f815f9055506001016111b5565b5090565b5f80fd5b5f60ff82169050919050565b6111e8816111d3565b81146111f2575f80fd5b50565b5f81359050611203816111df565b92915050565b5f6020828403121561121e5761121d6111cf565b5b5f61122b848285016111f5565b91505092915050565b5f819050919050565b61124681611234565b82525050565b5f60208201905061125f5f83018461123d565b92915050565b61126e81611234565b8114611278575f80fd5b50565b5f8135905061128981611265565b92915050565b5f602082840312156112a4576112a36111cf565b5b5f6112b18482850161127b565b91505092915050565b5f73ffffffffffffffffffffffffffffffffffffffff82169050919050565b5f6112e3826112ba565b9050919050565b6112f3816112d9565b82525050565b5f60208201905061130c5f8301846112ea565b92915050565b5f8115159050919050565b61132681611312565b82525050565b5f60208201905061133f5f83018461131d565b92915050565b61134e816111d3565b82525050565b5f6020820190506113675f830184611345565b92915050565b5f6080820190506113805f8301876112ea565b61138d602083018661123d565b61139a604083018561123d565b6113a7606083018461131d565b95945050505050565b5f82825260208201905092915050565b7f496e636f7272656374207469636b6574207072696365000000000000000000005f82015250565b5f6113f46016836113b0565b91506113ff826113c0565b602082019050919050565b5f6020820190508181035f830152611421816113e8565b9050919050565b7f4c6f747465727920616c726561647920647261776e00000000000000000000005f82015250565b5f61145c6015836113b0565b915061146782611428565b602082019050919050565b5f6020820190508181035f83015261148981611450565b9050919050565b7f5469636b6574206d757374206265206265747765656e20312d313030000000005f82015250565b5f6114c4601c836113b0565b91506114cf82611490565b602082019050919050565b5f6020820190508181035f8301526114f1816114b8565b9050919050565b7f4e487b71000000000000000000000000000000000000000000000000000000005f52603260045260245ffd5b7f496e76616c696420726f756e6420696e646578000000000000000000000000005f82015250565b5f6115596013836113b0565b915061156482611525565b602082019050919050565b5f6020820190508181035f8301526115868161154d565b9050919050565b7f4e6f74207468652077696e6e6572206f66207468697320726f756e64000000005f82015250565b5f6115c1601c836113b0565b91506115cc8261158d565b602082019050919050565b5f6020820190508181035f8301526115ee816115b5565b9050919050565b7f5072697a6520616c726561647920636c61696d656400000000000000000000005f82015250565b5f6116296015836113b0565b9150611634826115f5565b602082019050919050565b5f6020820190508181035f8301526116568161161d565b9050919050565b7f4e6f207072697a6520746f20636c61696d0000000000000000000000000000005f82015250565b5f6116916011836113b0565b915061169c8261165d565b602082019050919050565b5f6020820190508181035f8301526116be81611685565b9050919050565b7f4c6f7474657279206e6f7420647261776e2079657400000000000000000000005f82015250565b5f6116f96015836113b0565b9150611704826116c5565b602082019050919050565b5f6020820190508181035f830152611726816116ed565b9050919050565b7f4e6f74207468652077696e6e65720000000000000000000000000000000000005f82015250565b5f611761600e836113b0565b915061176c8261172d565b602082019050919050565b5f6020820190508181035f83015261178e81611755565b9050919050565b7f4e487b71000000000000000000000000000000000000000000000000000000005f52601160045260245ffd5b5f6117cc82611234565b91506117d783611234565b92508282039050818111156117ef576117ee611795565b5b92915050565b7f4e6f207061727469636970616e747300000000000000000000000000000000005f82015250565b5f611829600f836113b0565b9150611834826117f5565b602082019050919050565b5f6020820190508181035f8301526118568161181d565b9050919050565b5f61186782611234565b915061187283611234565b925082820190508082111561188a57611889611795565b5b92915050565b7f44726177206e6f7420617661696c61626c6520796574206f72206e6f742061645f8201527f6d696e0000000000000000000000000000000000000000000000000000000000602082015250565b5f6118ea6023836113b0565b91506118f582611890565b604082019050919050565b5f6020820190508181035f830152611917816118de565b9050919050565b5f819050919050565b61193861193382611234565b61191e565b82525050565b5f6119498286611927565b6020820191506119598285611927565b6020820191506119698284611927565b602082019150819050949350505050565b7f4e487b71000000000000000000000000000000000000000000000000000000005f52601260045260245ffd5b5f6119b182611234565b91506119bc83611234565b9250826119cc576119cb61197a565b5b82820690509291505056fea26469706673582212206ce33608968dd14568ae51e454e0e05d228f9e31efc5502043bb8e1089c105ae64736f6c63430008180033","opcodes":"PUSH1 0x80 PUSH1 0x40 MSTORE PUSH6 0x5AF3107A4000 PUSH1 0x2 SSTORE CALLVALUE DUP1 ISZERO PUSH2 0x19 JUMPI PUSH0 DUP1 REVERT JUMPDEST POP CALLER PUSH1 0x4 PUSH0 PUSH2 0x100 EXP DUP2 SLOAD DUP2 PUSH20 0xFFFFFFFFFFFFFFFFFFFFFFFFFFFFFFFFFFFFFFFF MUL NOT AND SWAP1 DUP4 PUSH20 0xFFFFFFFFFFFFFFFFFFFFFFFFFFFFFFFFFFFFFFFF AND MUL OR SWAP1 SSTORE POP PUSH2 0x1A0D DUP1 PUSH2 0x67 PUSH0 CODECOPY PUSH0 RETURN INVALID PUSH1 0x80 PUSH1 0x40 MSTORE PUSH1 0x4 CALLDATASIZE LT PUSH2 0xF2 JUMPI PUSH0 CALLDATALOAD PUSH1 0xE0 SHR DUP1 PUSH4 0x5CBBD635 GT PUSH2 0x89 JUMPI DUP1 PUSH4 0xBD85948C GT PUSH2 0x58 JUMPI DUP1 PUSH4 0xBD85948C EQ PUSH2 0x2C8 JUMPI DUP1 PUSH4 0xDFBF53AE EQ PUSH2 0x2DE JUMPI DUP1 PUSH4 0xF851A440 EQ PUSH2 0x308 JUMPI DUP1 PUSH4 0xFD9BA024 EQ PUSH2 0x332 JUMPI PUSH2 0xF2 JUMP JUMPDEST DUP1 PUSH4 0x5CBBD635 EQ PUSH2 0x248 JUMPI DUP1 PUSH4 0x70740AC9 EQ PUSH2 0x272 JUMPI DUP1 PUSH4 0xAD605729 EQ PUSH2 0x288 JUMPI DUP1 PUSH4 0xB2185BB1 EQ PUSH2 0x2B2 JUMPI PUSH2 0xF2 JUMP JUMPDEST DUP1 PUSH4 0x35C1D349 GT PUSH2 0xC5 JUMPI DUP1 PUSH4 0x35C1D349 EQ PUSH2 0x190 JUMPI DUP1 PUSH4 0x3C2BCADC EQ PUSH2 0x1CC JUMPI DUP1 PUSH4 0x3F7DAF81 EQ PUSH2 0x1F6 JUMPI DUP1 PUSH4 0x5B0DF84E EQ PUSH2 0x220 JUMPI PUSH2 0xF2 JUMP JUMPDEST DUP1 PUSH4 0x23697F0 EQ PUSH2 0xF6 JUMPI DUP1 PUSH4 0x12065FE0 EQ PUSH2 0x112 JUMPI DUP1 PUSH4 0x1209B1F6 EQ PUSH2 0x13C JUMPI DUP1 PUSH4 0x13CD372E EQ PUSH2 0x166 JUMPI JUMPDEST PUSH0 DUP1 REVERT JUMPDEST PUSH2 0x110 PUSH1 0x4 DUP1 CALLDATASIZE SUB DUP2 ADD SWAP1 PUSH2 0x10B SWAP2 SWAP1 PUSH2 0x1209 JUMP JUMPDEST PUSH2 0x371 JUMP JUMPDEST STOP JUMPDEST CALLVALUE DUP1 ISZERO PUSH2 0x11D JUMPI PUSH0 DUP1 REVERT JUMPDEST POP PUSH2 0x126 PUSH2 0x620 JUMP JUMPDEST PUSH1 0x40 MLOAD PUSH2 0x133 SWAP2 SWAP1 PUSH2 0x124C JUMP JUMPDEST PUSH1 0x40 MLOAD DUP1 SWAP2 SUB SWAP1 RETURN JUMPDEST CALLVALUE DUP1 ISZERO PUSH2 0x147 JUMPI PUSH0 DUP1 REVERT JUMPDEST POP PUSH2 0x150 PUSH2 0x627 JUMP JUMPDEST PUSH1 0x40 MLOAD PUSH2 0x15D SWAP2 SWAP1 PUSH2 0x124C JUMP JUMPDEST PUSH1 0x40 MLOAD DUP1 SWAP2 SUB SWAP1 RETURN JUMPDEST CALLVALUE DUP1 ISZERO PUSH2 0x171 JUMPI PUSH0 DUP1 REVERT JUMPDEST POP PUSH2 0x17A PUSH2 0x62D JUMP JUMPDEST PUSH1 0x40 MLOAD PUSH2 0x187 SWAP2 SWAP1 PUSH2 0x124C JUMP JUMPDEST PUSH1 0x40 MLOAD DUP1 SWAP2 SUB SWAP1 RETURN JUMPDEST CALLVALUE DUP1 ISZERO PUSH2 0x19B JUMPI PUSH0 DUP1 REVERT JUMPDEST POP PUSH2 0x1B6 PUSH1 0x4 DUP1 CALLDATASIZE SUB DUP2 ADD SWAP1 PUSH2 0x1B1 SWAP2 SWAP1 PUSH2 0x128F JUMP JUMPDEST PUSH2 0x639 JUMP JUMPDEST PUSH1 0x40 MLOAD PUSH2 0x1C3 SWAP2 SWAP1 PUSH2 0x12F9 JUMP JUMPDEST PUSH1 0x40 MLOAD DUP1 SWAP2 SUB SWAP1 RETURN JUMPDEST CALLVALUE DUP1 ISZERO PUSH2 0x1D7 JUMPI PUSH0 DUP1 REVERT JUMPDEST POP PUSH2 0x1E0 PUSH2 0x674 JUMP JUMPDEST PUSH1 0x40 MLOAD PUSH2 0x1ED SWAP2 SWAP1 PUSH2 0x132C JUMP JUMPDEST PUSH1 0x40 MLOAD DUP1 SWAP2 SUB SWAP1 RETURN JUMPDEST CALLVALUE DUP1 ISZERO PUSH2 0x201 JUMPI PUSH0 DUP1 REVERT JUMPDEST POP PUSH2 0x20A PUSH2 0x687 JUMP JUMPDEST PUSH1 0x40 MLOAD PUSH2 0x217 SWAP2 SWAP1 PUSH2 0x1354 JUMP JUMPDEST PUSH1 0x40 MLOAD DUP1 SWAP2 SUB SWAP1 RETURN JUMPDEST CALLVALUE DUP1 ISZERO PUSH2 0x22B JUMPI PUSH0 DUP1 REVERT JUMPDEST POP PUSH2 0x246 PUSH1 0x4 DUP1 CALLDATASIZE SUB DUP2 ADD SWAP1 PUSH2 0x241 SWAP2 SWAP1 PUSH2 0x128F JUMP JUMPDEST PUSH2 0x6D6 JUMP JUMPDEST STOP JUMPDEST CALLVALUE DUP1 ISZERO PUSH2 0x253 JUMPI PUSH0 DUP1 REVERT JUMPDEST POP PUSH2 0x25C PUSH2 0x976 JUMP JUMPDEST PUSH1 0x40 MLOAD PUSH2 0x269 SWAP2 SWAP1 PUSH2 0x124C JUMP JUMPDEST PUSH1 0x40 MLOAD DUP1 SWAP2 SUB SWAP1 RETURN JUMPDEST CALLVALUE DUP1 ISZERO PUSH2 0x27D JUMPI PUSH0 DUP1 REVERT JUMPDEST POP PUSH2 0x286 PUSH2 0x97C JUMP JUMPDEST STOP JUMPDEST CALLVALUE DUP1 ISZERO PUSH2 0x293 JUMPI PUSH0 DUP1 REVERT JUMPDEST POP PUSH2 0x29C PUSH2 0xBD1 JUMP JUMPDEST PUSH1 0x40 MLOAD PUSH2 0x2A9 SWAP2 SWAP1 PUSH2 0x124C JUMP JUMPDEST PUSH1 0x40 MLOAD DUP1 SWAP2 SUB SWAP1 RETURN JUMPDEST CALLVALUE DUP1 ISZERO PUSH2 0x2BD JUMPI PUSH0 DUP1 REVERT JUMPDEST POP PUSH2 0x2C6 PUSH2 0xBDD JUMP JUMPDEST STOP JUMPDEST CALLVALUE DUP1 ISZERO PUSH2 0x2D3 JUMPI PUSH0 DUP1 REVERT JUMPDEST POP PUSH2 0x2DC PUSH2 0xFD9 JUMP JUMPDEST STOP JUMPDEST CALLVALUE DUP1 ISZERO PUSH2 0x2E9 JUMPI PUSH0 DUP1 REVERT JUMPDEST POP PUSH2 0x2F2 PUSH2 0x10E6 JUMP JUMPDEST PUSH1 0x40 MLOAD PUSH2 0x2FF SWAP2 SWAP1 PUSH2 0x12F9 JUMP JUMPDEST PUSH1 0x40 MLOAD DUP1 SWAP2 SUB SWAP1 RETURN JUMPDEST CALLVALUE DUP1 ISZERO PUSH2 0x313 JUMPI PUSH0 DUP1 REVERT JUMPDEST POP PUSH2 0x31C PUSH2 0x110B JUMP JUMPDEST PUSH1 0x40 MLOAD PUSH2 0x329 SWAP2 SWAP1 PUSH2 0x12F9 JUMP JUMPDEST PUSH1 0x40 MLOAD DUP1 SWAP2 SUB SWAP1 RETURN JUMPDEST CALLVALUE DUP1 ISZERO PUSH2 0x33D JUMPI PUSH0 DUP1 REVERT JUMPDEST POP PUSH2 0x358 PUSH1 0x4 DUP1 CALLDATASIZE SUB DUP2 ADD SWAP1 PUSH2 0x353 SWAP2 SWAP1 PUSH2 0x128F JUMP JUMPDEST PUSH2 0x1130 JUMP JUMPDEST PUSH1 0x40 MLOAD PUSH2 0x368 SWAP5 SWAP4 SWAP3 SWAP2 SWAP1 PUSH2 0x136D JUMP JUMPDEST PUSH1 0x40 MLOAD DUP1 SWAP2 SUB SWAP1 RETURN JUMPDEST PUSH1 0x2 SLOAD CALLVALUE EQ PUSH2 0x3B5 JUMPI PUSH1 0x40 MLOAD PUSH32 0x8C379A000000000000000000000000000000000000000000000000000000000 DUP2 MSTORE PUSH1 0x4 ADD PUSH2 0x3AC SWAP1 PUSH2 0x140A JUMP JUMPDEST PUSH1 0x40 MLOAD DUP1 SWAP2 SUB SWAP1 REVERT JUMPDEST PUSH1 0x1 PUSH1 0x14 SWAP1 SLOAD SWAP1 PUSH2 0x100 EXP SWAP1 DIV PUSH1 0xFF AND ISZERO PUSH2 0x405 JUMPI PUSH1 0x40 MLOAD PUSH32 0x8C379A000000000000000000000000000000000000000000000000000000000 DUP2 MSTORE PUSH1 0x4 ADD PUSH2 0x3FC SWAP1 PUSH2 0x1472 JUMP JUMPDEST PUSH1 0x40 MLOAD DUP1 SWAP2 SUB SWAP1 REVERT JUMPDEST PUSH1 0x1 DUP2 PUSH1 0xFF AND LT ISZERO DUP1 ISZERO PUSH2 0x41D JUMPI POP PUSH1 0x64 DUP2 PUSH1 0xFF AND GT ISZERO JUMPDEST PUSH2 0x45C JUMPI PUSH1 0x40 MLOAD PUSH32 0x8C379A000000000000000000000000000000000000000000000000000000000 DUP2 MSTORE PUSH1 0x4 ADD PUSH2 0x453 SWAP1 PUSH2 0x14DA JUMP JUMPDEST PUSH1 0x40 MLOAD DUP1 SWAP2 SUB SWAP1 REVERT JUMPDEST DUP1 PUSH0 DUP1 CALLER PUSH20 0xFFFFFFFFFFFFFFFFFFFFFFFFFFFFFFFFFFFFFFFF AND PUSH20 0xFFFFFFFFFFFFFFFFFFFFFFFFFFFFFFFFFFFFFFFF AND DUP2 MSTORE PUSH1 0x20 ADD SWAP1 DUP2 MSTORE PUSH1 0x20 ADD PUSH0 KECCAK256 PUSH0 PUSH2 0x100 EXP DUP2 SLOAD DUP2 PUSH1 0xFF MUL NOT AND SWAP1 DUP4 PUSH1 0xFF AND MUL OR SWAP1 SSTORE POP PUSH0 DUP1 JUMPDEST PUSH1 0x3 DUP1 SLOAD SWAP1 POP DUP2 LT ISZERO PUSH2 0x544 JUMPI CALLER PUSH20 0xFFFFFFFFFFFFFFFFFFFFFFFFFFFFFFFFFFFFFFFF AND PUSH1 0x3 DUP3 DUP2 SLOAD DUP2 LT PUSH2 0x4EB JUMPI PUSH2 0x4EA PUSH2 0x14F8 JUMP JUMPDEST JUMPDEST SWAP1 PUSH0 MSTORE PUSH1 0x20 PUSH0 KECCAK256 ADD PUSH0 SWAP1 SLOAD SWAP1 PUSH2 0x100 EXP SWAP1 DIV PUSH20 0xFFFFFFFFFFFFFFFFFFFFFFFFFFFFFFFFFFFFFFFF AND PUSH20 0xFFFFFFFFFFFFFFFFFFFFFFFFFFFFFFFFFFFFFFFF AND SUB PUSH2 0x537 JUMPI PUSH1 0x1 SWAP2 POP PUSH2 0x544 JUMP JUMPDEST DUP1 DUP1 PUSH1 0x1 ADD SWAP2 POP POP PUSH2 0x4B3 JUMP JUMPDEST POP DUP1 PUSH2 0x5AB JUMPI PUSH1 0x3 CALLER SWAP1 DUP1 PUSH1 0x1 DUP2 SLOAD ADD DUP1 DUP3 SSTORE DUP1 SWAP2 POP POP PUSH1 0x1 SWAP1 SUB SWAP1 PUSH0 MSTORE PUSH1 0x20 PUSH0 KECCAK256 ADD PUSH0 SWAP1 SWAP2 SWAP1 SWAP2 SWAP1 SWAP2 PUSH2 0x100 EXP DUP2 SLOAD DUP2 PUSH20 0xFFFFFFFFFFFFFFFFFFFFFFFFFFFFFFFFFFFFFFFF MUL NOT AND SWAP1 DUP4 PUSH20 0xFFFFFFFFFFFFFFFFFFFFFFFFFFFFFFFFFFFFFFFF AND MUL OR SWAP1 SSTORE POP JUMPDEST PUSH1 0x1 PUSH1 0x3 DUP1 SLOAD SWAP1 POP EQ DUP1 ISZERO PUSH2 0x5C1 JUMPI POP PUSH0 PUSH1 0x5 SLOAD EQ JUMPDEST ISZERO PUSH2 0x5CE JUMPI TIMESTAMP PUSH1 0x5 DUP2 SWAP1 SSTORE POP JUMPDEST CALLER PUSH20 0xFFFFFFFFFFFFFFFFFFFFFFFFFFFFFFFFFFFFFFFF AND PUSH32 0x544A428276E01BD3774FE90DE75FEE1B2B8BD04D8E999814D59EFAA3B70318E7 DUP4 PUSH1 0x40 MLOAD PUSH2 0x614 SWAP2 SWAP1 PUSH2 0x1354 JUMP JUMPDEST PUSH1 0x40 MLOAD DUP1 SWAP2 SUB SWAP1 LOG2 POP POP JUMP JUMPDEST PUSH0 SELFBALANCE SWAP1 POP SWAP1 JUMP JUMPDEST PUSH1 0x2 SLOAD DUP2 JUMP JUMPDEST PUSH0 PUSH1 0x6 DUP1 SLOAD SWAP1 POP SWAP1 POP SWAP1 JUMP JUMPDEST PUSH1 0x3 DUP2 DUP2 SLOAD DUP2 LT PUSH2 0x648 JUMPI PUSH0 DUP1 REVERT JUMPDEST SWAP1 PUSH0 MSTORE PUSH1 0x20 PUSH0 KECCAK256 ADD PUSH0 SWAP2 POP SLOAD SWAP1 PUSH2 0x100 EXP SWAP1 DIV PUSH20 0xFFFFFFFFFFFFFFFFFFFFFFFFFFFFFFFFFFFFFFFF AND DUP2 JUMP JUMPDEST PUSH1 0x1 PUSH1 0x14 SWAP1 SLOAD SWAP1 PUSH2 0x100 EXP SWAP1 DIV PUSH1 0xFF AND DUP2 JUMP JUMPDEST PUSH0 DUP1 PUSH0 CALLER PUSH20 0xFFFFFFFFFFFFFFFFFFFFFFFFFFFFFFFFFFFFFFFF AND PUSH20 0xFFFFFFFFFFFFFFFFFFFFFFFFFFFFFFFFFFFFFFFF AND DUP2 MSTORE PUSH1 0x20 ADD SWAP1 DUP2 MSTORE PUSH1 0x20 ADD PUSH0 KECCAK256 PUSH0 SWAP1 SLOAD SWAP1 PUSH2 0x100 EXP SWAP1 DIV PUSH1 0xFF AND SWAP1 POP SWAP1 JUMP JUMPDEST PUSH1 0x6 DUP1 SLOAD SWAP1 POP DUP2 LT PUSH2 0x71D JUMPI PUSH1 0x40 MLOAD PUSH32 0x8C379A000000000000000000000000000000000000000000000000000000000 DUP2 MSTORE PUSH1 0x4 ADD PUSH2 0x714 SWAP1 PUSH2 0x156F JUMP JUMPDEST PUSH1 0x40 MLOAD DUP1 SWAP2 SUB SWAP1 REVERT JUMPDEST PUSH1 0x6 DUP2 DUP2 SLOAD DUP2 LT PUSH2 0x731 JUMPI PUSH2 0x730 PUSH2 0x14F8 JUMP JUMPDEST JUMPDEST SWAP1 PUSH0 MSTORE PUSH1 0x20 PUSH0 KECCAK256 SWAP1 PUSH1 0x4 MUL ADD PUSH0 ADD PUSH0 SWAP1 SLOAD SWAP1 PUSH2 0x100 EXP SWAP1 DIV PUSH20 0xFFFFFFFFFFFFFFFFFFFFFFFFFFFFFFFFFFFFFFFF AND PUSH20 0xFFFFFFFFFFFFFFFFFFFFFFFFFFFFFFFFFFFFFFFF AND CALLER PUSH20 0xFFFFFFFFFFFFFFFFFFFFFFFFFFFFFFFFFFFFFFFF AND EQ PUSH2 0x7CC JUMPI PUSH1 0x40 MLOAD PUSH32 0x8C379A000000000000000000000000000000000000000000000000000000000 DUP2 MSTORE PUSH1 0x4 ADD PUSH2 0x7C3 SWAP1 PUSH2 0x15D7 JUMP JUMPDEST PUSH1 0x40 MLOAD DUP1 SWAP2 SUB SWAP1 REVERT JUMPDEST PUSH1 0x6 DUP2 DUP2 SLOAD DUP2 LT PUSH2 0x7E0 JUMPI PUSH2 0x7DF PUSH2 0x14F8 JUMP JUMPDEST JUMPDEST SWAP1 PUSH0 MSTORE PUSH1 0x20 PUSH0 KECCAK256 SWAP1 PUSH1 0x4 MUL ADD PUSH1 0x3 ADD PUSH0 SWAP1 SLOAD SWAP1 PUSH2 0x100 EXP SWAP1 DIV PUSH1 0xFF AND ISZERO PUSH2 0x83C JUMPI PUSH1 0x40 MLOAD PUSH32 0x8C379A000000000000000000000000000000000000000000000000000000000 DUP2 MSTORE PUSH1 0x4 ADD PUSH2 0x833 SWAP1 PUSH2 0x163F JUMP JUMPDEST PUSH1 0x40 MLOAD DUP1 SWAP2 SUB SWAP1 REVERT JUMPDEST PUSH0 PUSH1 0x6 DUP3 DUP2 SLOAD DUP2 LT PUSH2 0x851 JUMPI PUSH2 0x850 PUSH2 0x14F8 JUMP JUMPDEST JUMPDEST SWAP1 PUSH0 MSTORE PUSH1 0x20 PUSH0 KECCAK256 SWAP1 PUSH1 0x4 MUL ADD PUSH1 0x1 ADD SLOAD SWAP1 POP PUSH0 DUP2 GT PUSH2 0x8A5 JUMPI PUSH1 0x40 MLOAD PUSH32 0x8C379A000000000000000000000000000000000000000000000000000000000 DUP2 MSTORE PUSH1 0x4 ADD PUSH2 0x89C SWAP1 PUSH2 0x16A7 JUMP JUMPDEST PUSH1 0x40 MLOAD DUP1 SWAP2 SUB SWAP1 REVERT JUMPDEST PUSH1 0x1 PUSH1 0x6 DUP4 DUP2 SLOAD DUP2 LT PUSH2 0x8BB JUMPI PUSH2 0x8BA PUSH2 0x14F8 JUMP JUMPDEST JUMPDEST SWAP1 PUSH0 MSTORE PUSH1 0x20 PUSH0 KECCAK256 SWAP1 PUSH1 0x4 MUL ADD PUSH1 0x3 ADD PUSH0 PUSH2 0x100 EXP DUP2 SLOAD DUP2 PUSH1 0xFF MUL NOT AND SWAP1 DUP4 ISZERO ISZERO MUL OR SWAP1 SSTORE POP CALLER PUSH20 0xFFFFFFFFFFFFFFFFFFFFFFFFFFFFFFFFFFFFFFFF AND PUSH2 0x8FC DUP3 SWAP1 DUP2 ISZERO MUL SWAP1 PUSH1 0x40 MLOAD PUSH0 PUSH1 0x40 MLOAD DUP1 DUP4 SUB DUP2 DUP6 DUP9 DUP9 CALL SWAP4 POP POP POP POP ISZERO DUP1 ISZERO PUSH2 0x923 JUMPI RETURNDATASIZE PUSH0 DUP1 RETURNDATACOPY RETURNDATASIZE PUSH0 REVERT JUMPDEST POP CALLER PUSH20 0xFFFFFFFFFFFFFFFFFFFFFFFFFFFFFFFFFFFFFFFF AND PUSH32 0x95681E512BC0FE659E195E06C283EADA494316F3D801213E48E7101AF92BF770 DUP3 PUSH1 0x40 MLOAD PUSH2 0x96A SWAP2 SWAP1 PUSH2 0x124C JUMP JUMPDEST PUSH1 0x40 MLOAD DUP1 SWAP2 SUB SWAP1 LOG2 POP POP JUMP JUMPDEST PUSH1 0x5 SLOAD DUP2 JUMP JUMPDEST PUSH1 0x1 PUSH1 0x14 SWAP1 SLOAD SWAP1 PUSH2 0x100 EXP SWAP1 DIV PUSH1 0xFF AND PUSH2 0x9CB JUMPI PUSH1 0x40 MLOAD PUSH32 0x8C379A000000000000000000000000000000000000000000000000000000000 DUP2 MSTORE PUSH1 0x4 ADD PUSH2 0x9C2 SWAP1 PUSH2 0x170F JUMP JUMPDEST PUSH1 0x40 MLOAD DUP1 SWAP2 SUB SWAP1 REVERT JUMPDEST PUSH1 0x1 PUSH0 SWAP1 SLOAD SWAP1 PUSH2 0x100 EXP SWAP1 DIV PUSH20 0xFFFFFFFFFFFFFFFFFFFFFFFFFFFFFFFFFFFFFFFF AND PUSH20 0xFFFFFFFFFFFFFFFFFFFFFFFFFFFFFFFFFFFFFFFF AND CALLER PUSH20 0xFFFFFFFFFFFFFFFFFFFFFFFFFFFFFFFFFFFFFFFF AND EQ PUSH2 0xA5A JUMPI PUSH1 0x40 MLOAD PUSH32 0x8C379A000000000000000000000000000000000000000000000000000000000 DUP2 MSTORE PUSH1 0x4 ADD PUSH2 0xA51 SWAP1 PUSH2 0x1777 JUMP JUMPDEST PUSH1 0x40 MLOAD DUP1 SWAP2 SUB SWAP1 REVERT JUMPDEST PUSH0 SELFBALANCE SWAP1 POP PUSH0 DUP2 GT PUSH2 0xAA0 JUMPI PUSH1 0x40 MLOAD PUSH32 0x8C379A000000000000000000000000000000000000000000000000000000000 DUP2 MSTORE PUSH1 0x4 ADD PUSH2 0xA97 SWAP1 PUSH2 0x16A7 JUMP JUMPDEST PUSH1 0x40 MLOAD DUP1 SWAP2 SUB SWAP1 REVERT JUMPDEST PUSH1 0x1 PUSH0 SWAP1 SLOAD SWAP1 PUSH2 0x100 EXP SWAP1 DIV PUSH20 0xFFFFFFFFFFFFFFFFFFFFFFFFFFFFFFFFFFFFFFFF AND PUSH20 0xFFFFFFFFFFFFFFFFFFFFFFFFFFFFFFFFFFFFFFFF AND PUSH2 0x8FC DUP3 SWAP1 DUP2 ISZERO MUL SWAP1 PUSH1 0x40 MLOAD PUSH0 PUSH1 0x40 MLOAD DUP1 DUP4 SUB DUP2 DUP6 DUP9 DUP9 CALL SWAP4 POP POP POP POP ISZERO DUP1 ISZERO PUSH2 0xB04 JUMPI RETURNDATASIZE PUSH0 DUP1 RETURNDATACOPY RETURNDATASIZE PUSH0 REVERT JUMPDEST POP PUSH0 PUSH1 0x6 DUP1 SLOAD SWAP1 POP GT ISZERO PUSH2 0xB5F JUMPI PUSH1 0x1 PUSH1 0x6 PUSH1 0x1 PUSH1 0x6 DUP1 SLOAD SWAP1 POP PUSH2 0xB28 SWAP2 SWAP1 PUSH2 0x17C2 JUMP JUMPDEST DUP2 SLOAD DUP2 LT PUSH2 0xB39 JUMPI PUSH2 0xB38 PUSH2 0x14F8 JUMP JUMPDEST JUMPDEST SWAP1 PUSH0 MSTORE PUSH1 0x20 PUSH0 KECCAK256 SWAP1 PUSH1 0x4 MUL ADD PUSH1 0x3 ADD PUSH0 PUSH2 0x100 EXP DUP2 SLOAD DUP2 PUSH1 0xFF MUL NOT AND SWAP1 DUP4 ISZERO ISZERO MUL OR SWAP1 SSTORE POP JUMPDEST PUSH1 0x1 PUSH0 SWAP1 SLOAD SWAP1 PUSH2 0x100 EXP SWAP1 DIV PUSH20 0xFFFFFFFFFFFFFFFFFFFFFFFFFFFFFFFFFFFFFFFF AND PUSH20 0xFFFFFFFFFFFFFFFFFFFFFFFFFFFFFFFFFFFFFFFF AND PUSH32 0x95681E512BC0FE659E195E06C283EADA494316F3D801213E48E7101AF92BF770 DUP3 PUSH1 0x40 MLOAD PUSH2 0xBC6 SWAP2 SWAP1 PUSH2 0x124C JUMP JUMPDEST PUSH1 0x40 MLOAD DUP1 SWAP2 SUB SWAP1 LOG2 POP JUMP JUMPDEST PUSH0 PUSH1 0x3 DUP1 SLOAD SWAP1 POP SWAP1 POP SWAP1 JUMP JUMPDEST PUSH1 0x1 PUSH1 0x14 SWAP1 SLOAD SWAP1 PUSH2 0x100 EXP SWAP1 DIV PUSH1 0xFF AND ISZERO PUSH2 0xC2D JUMPI PUSH1 0x40 MLOAD PUSH32 0x8C379A000000000000000000000000000000000000000000000000000000000 DUP2 MSTORE PUSH1 0x4 ADD PUSH2 0xC24 SWAP1 PUSH2 0x1472 JUMP JUMPDEST PUSH1 0x40 MLOAD DUP1 SWAP2 SUB SWAP1 REVERT JUMPDEST PUSH0 PUSH1 0x3 DUP1 SLOAD SWAP1 POP GT PUSH2 0xC74 JUMPI PUSH1 0x40 MLOAD PUSH32 0x8C379A000000000000000000000000000000000000000000000000000000000 DUP2 MSTORE PUSH1 0x4 ADD PUSH2 0xC6B SWAP1 PUSH2 0x183F JUMP JUMPDEST PUSH1 0x40 MLOAD DUP1 SWAP2 SUB SWAP1 REVERT JUMPDEST PUSH1 0x4 PUSH0 SWAP1 SLOAD SWAP1 PUSH2 0x100 EXP SWAP1 DIV PUSH20 0xFFFFFFFFFFFFFFFFFFFFFFFFFFFFFFFFFFFFFFFF AND PUSH20 0xFFFFFFFFFFFFFFFFFFFFFFFFFFFFFFFFFFFFFFFF AND CALLER PUSH20 0xFFFFFFFFFFFFFFFFFFFFFFFFFFFFFFFFFFFFFFFF AND EQ DUP1 PUSH2 0xCDE JUMPI POP PUSH2 0x258 PUSH1 0x5 SLOAD PUSH2 0xCDA SWAP2 SWAP1 PUSH2 0x185D JUMP JUMPDEST TIMESTAMP LT ISZERO JUMPDEST PUSH2 0xD1D JUMPI PUSH1 0x40 MLOAD PUSH32 0x8C379A000000000000000000000000000000000000000000000000000000000 DUP2 MSTORE PUSH1 0x4 ADD PUSH2 0xD14 SWAP1 PUSH2 0x1900 JUMP JUMPDEST PUSH1 0x40 MLOAD DUP1 SWAP2 SUB SWAP1 REVERT JUMPDEST PUSH0 PUSH1 0x3 DUP1 SLOAD SWAP1 POP TIMESTAMP PREVRANDAO PUSH1 0x3 DUP1 SLOAD SWAP1 POP PUSH1 0x40 MLOAD PUSH1 0x20 ADD PUSH2 0xD3E SWAP4 SWAP3 SWAP2 SWAP1 PUSH2 0x193E JUMP JUMPDEST PUSH1 0x40 MLOAD PUSH1 0x20 DUP2 DUP4 SUB SUB DUP2 MSTORE SWAP1 PUSH1 0x40 MSTORE DUP1 MLOAD SWAP1 PUSH1 0x20 ADD KECCAK256 PUSH0 SHR PUSH2 0xD60 SWAP2 SWAP1 PUSH2 0x19A7 JUMP JUMPDEST SWAP1 POP PUSH1 0x3 DUP2 DUP2 SLOAD DUP2 LT PUSH2 0xD76 JUMPI PUSH2 0xD75 PUSH2 0x14F8 JUMP JUMPDEST JUMPDEST SWAP1 PUSH0 MSTORE PUSH1 0x20 PUSH0 KECCAK256 ADD PUSH0 SWAP1 SLOAD SWAP1 PUSH2 0x100 EXP SWAP1 DIV PUSH20 0xFFFFFFFFFFFFFFFFFFFFFFFFFFFFFFFFFFFFFFFF AND PUSH1 0x1 PUSH0 PUSH2 0x100 EXP DUP2 SLOAD DUP2 PUSH20 0xFFFFFFFFFFFFFFFFFFFFFFFFFFFFFFFFFFFFFFFF MUL NOT AND SWAP1 DUP4 PUSH20 0xFFFFFFFFFFFFFFFFFFFFFFFFFFFFFFFFFFFFFFFF AND MUL OR SWAP1 SSTORE POP PUSH1 0x1 DUP1 PUSH1 0x14 PUSH2 0x100 EXP DUP2 SLOAD DUP2 PUSH1 0xFF MUL NOT AND SWAP1 DUP4 ISZERO ISZERO MUL OR SWAP1 SSTORE POP TIMESTAMP PUSH1 0x5 DUP2 SWAP1 SSTORE POP PUSH1 0x6 PUSH1 0x40 MLOAD DUP1 PUSH1 0x80 ADD PUSH1 0x40 MSTORE DUP1 PUSH1 0x1 PUSH0 SWAP1 SLOAD SWAP1 PUSH2 0x100 EXP SWAP1 DIV PUSH20 0xFFFFFFFFFFFFFFFFFFFFFFFFFFFFFFFFFFFFFFFF AND PUSH20 0xFFFFFFFFFFFFFFFFFFFFFFFFFFFFFFFFFFFFFFFF AND DUP2 MSTORE PUSH1 0x20 ADD SELFBALANCE DUP2 MSTORE PUSH1 0x20 ADD TIMESTAMP DUP2 MSTORE PUSH1 0x20 ADD PUSH0 ISZERO ISZERO DUP2 MSTORE POP SWAP1 DUP1 PUSH1 0x1 DUP2 SLOAD ADD DUP1 DUP3 SSTORE DUP1 SWAP2 POP POP PUSH1 0x1 SWAP1 SUB SWAP1 PUSH0 MSTORE PUSH1 0x20 PUSH0 KECCAK256 SWAP1 PUSH1 0x4 MUL ADD PUSH0 SWAP1 SWAP2 SWAP1 SWAP2 SWAP1 SWAP2 POP PUSH0 DUP3 ADD MLOAD DUP2 PUSH0 ADD PUSH0 PUSH2 0x100 EXP DUP2 SLOAD DUP2 PUSH20 0xFFFFFFFFFFFFFFFFFFFFFFFFFFFFFFFFFFFFFFFF MUL NOT AND SWAP1 DUP4 PUSH20 0xFFFFFFFFFFFFFFFFFFFFFFFFFFFFFFFFFFFFFFFF AND MUL OR SWAP1 SSTORE POP PUSH1 0x20 DUP3 ADD MLOAD DUP2 PUSH1 0x1 ADD SSTORE PUSH1 0x40 DUP3 ADD MLOAD DUP2 PUSH1 0x2 ADD SSTORE PUSH1 0x60 DUP3 ADD MLOAD DUP2 PUSH1 0x3 ADD PUSH0 PUSH2 0x100 EXP DUP2 SLOAD DUP2 PUSH1 0xFF MUL NOT AND SWAP1 DUP4 ISZERO ISZERO MUL OR SWAP1 SSTORE POP POP POP PUSH0 DUP1 PUSH0 PUSH1 0x1 PUSH0 SWAP1 SLOAD SWAP1 PUSH2 0x100 EXP SWAP1 DIV PUSH20 0xFFFFFFFFFFFFFFFFFFFFFFFFFFFFFFFFFFFFFFFF AND PUSH20 0xFFFFFFFFFFFFFFFFFFFFFFFFFFFFFFFFFFFFFFFF AND PUSH20 0xFFFFFFFFFFFFFFFFFFFFFFFFFFFFFFFFFFFFFFFF AND DUP2 MSTORE PUSH1 0x20 ADD SWAP1 DUP2 MSTORE PUSH1 0x20 ADD PUSH0 KECCAK256 PUSH0 SWAP1 SLOAD SWAP1 PUSH2 0x100 EXP SWAP1 DIV PUSH1 0xFF AND SWAP1 POP PUSH1 0x1 PUSH0 SWAP1 SLOAD SWAP1 PUSH2 0x100 EXP SWAP1 DIV PUSH20 0xFFFFFFFFFFFFFFFFFFFFFFFFFFFFFFFFFFFFFFFF AND PUSH20 0xFFFFFFFFFFFFFFFFFFFFFFFFFFFFFFFFFFFFFFFF AND PUSH32 0x97F81796ACDE1F8350124EADBA95449DAEF1CFDBC53C651CAA49B7B1673A0CF DUP3 PUSH1 0x40 MLOAD PUSH2 0xFCD SWAP2 SWAP1 PUSH2 0x1354 JUMP JUMPDEST PUSH1 0x40 MLOAD DUP1 SWAP2 SUB SWAP1 LOG2 POP POP JUMP JUMPDEST PUSH1 0x1 PUSH1 0x14 SWAP1 SLOAD SWAP1 PUSH2 0x100 EXP SWAP1 DIV PUSH1 0xFF AND PUSH2 0x1028 JUMPI PUSH1 0x40 MLOAD PUSH32 0x8C379A000000000000000000000000000000000000000000000000000000000 DUP2 MSTORE PUSH1 0x4 ADD PUSH2 0x101F SWAP1 PUSH2 0x170F JUMP JUMPDEST PUSH1 0x40 MLOAD DUP1 SWAP2 SUB SWAP1 REVERT JUMPDEST PUSH0 PUSH1 0x1 PUSH1 0x14 PUSH2 0x100 EXP DUP2 SLOAD DUP2 PUSH1 0xFF MUL NOT AND SWAP1 DUP4 ISZERO ISZERO MUL OR SWAP1 SSTORE POP PUSH0 PUSH1 0x1 PUSH0 PUSH2 0x100 EXP DUP2 SLOAD DUP2 PUSH20 0xFFFFFFFFFFFFFFFFFFFFFFFFFFFFFFFFFFFFFFFF MUL NOT AND SWAP1 DUP4 PUSH20 0xFFFFFFFFFFFFFFFFFFFFFFFFFFFFFFFFFFFFFFFF AND MUL OR SWAP1 SSTORE POP TIMESTAMP PUSH1 0x5 DUP2 SWAP1 SSTORE POP PUSH1 0x3 PUSH0 PUSH2 0x1096 SWAP2 SWAP1 PUSH2 0x1196 JUMP JUMPDEST CALLER PUSH20 0xFFFFFFFFFFFFFFFFFFFFFFFFFFFFFFFFFFFFFFFF AND PUSH32 0x98AB7E823882180C9F7D9ED464E68D4F8FBE0DDE6AC4E6F9EF956DBC424E6192 TIMESTAMP PUSH1 0x40 MLOAD PUSH2 0x10DC SWAP2 SWAP1 PUSH2 0x124C JUMP JUMPDEST PUSH1 0x40 MLOAD DUP1 SWAP2 SUB SWAP1 LOG2 JUMP JUMPDEST PUSH1 0x1 PUSH0 SWAP1 SLOAD SWAP1 PUSH2 0x100 EXP SWAP1 DIV PUSH20 0xFFFFFFFFFFFFFFFFFFFFFFFFFFFFFFFFFFFFFFFF AND DUP2 JUMP JUMPDEST PUSH1 0x4 PUSH0 SWAP1 SLOAD SWAP1 PUSH2 0x100 EXP SWAP1 DIV PUSH20 0xFFFFFFFFFFFFFFFFFFFFFFFFFFFFFFFFFFFFFFFF AND DUP2 JUMP JUMPDEST PUSH1 0x6 DUP2 DUP2 SLOAD DUP2 LT PUSH2 0x113F JUMPI PUSH0 DUP1 REVERT JUMPDEST SWAP1 PUSH0 MSTORE PUSH1 0x20 PUSH0 KECCAK256 SWAP1 PUSH1 0x4 MUL ADD PUSH0 SWAP2 POP SWAP1 POP DUP1 PUSH0 ADD PUSH0 SWAP1 SLOAD SWAP1 PUSH2 0x100 EXP SWAP1 DIV PUSH20 0xFFFFFFFFFFFFFFFFFFFFFFFFFFFFFFFFFFFFFFFF AND SWAP1 DUP1 PUSH1 0x1 ADD SLOAD SWAP1 DUP1 PUSH1 0x2 ADD SLOAD SWAP1 DUP1 PUSH1 0x3 ADD PUSH0 SWAP1 SLOAD SWAP1 PUSH2 0x100 EXP SWAP1 DIV PUSH1 0xFF AND SWAP1 POP DUP5 JUMP JUMPDEST POP DUP1 SLOAD PUSH0 DUP3 SSTORE SWAP1 PUSH0 MSTORE PUSH1 0x20 PUSH0 KECCAK256 SWAP1 DUP2 ADD SWAP1 PUSH2 0x11B1 SWAP2 SWAP1 PUSH2 0x11B4 JUMP JUMPDEST POP JUMP JUMPDEST JUMPDEST DUP1 DUP3 GT ISZERO PUSH2 0x11CB JUMPI PUSH0 DUP2 PUSH0 SWAP1 SSTORE POP PUSH1 0x1 ADD PUSH2 0x11B5 JUMP JUMPDEST POP SWAP1 JUMP JUMPDEST PUSH0 DUP1 REVERT JUMPDEST PUSH0 PUSH1 0xFF DUP3 AND SWAP1 POP SWAP2 SWAP1 POP JUMP JUMPDEST PUSH2 0x11E8 DUP2 PUSH2 0x11D3 JUMP JUMPDEST DUP2 EQ PUSH2 0x11F2 JUMPI PUSH0 DUP1 REVERT JUMPDEST POP JUMP JUMPDEST PUSH0 DUP2 CALLDATALOAD SWAP1 POP PUSH2 0x1203 DUP2 PUSH2 0x11DF JUMP JUMPDEST SWAP3 SWAP2 POP POP JUMP JUMPDEST PUSH0 PUSH1 0x20 DUP3 DUP5 SUB SLT ISZERO PUSH2 0x121E JUMPI PUSH2 0x121D PUSH2 0x11CF JUMP JUMPDEST JUMPDEST PUSH0 PUSH2 0x122B DUP5 DUP3 DUP6 ADD PUSH2 0x11F5 JUMP JUMPDEST SWAP2 POP POP SWAP3 SWAP2 POP POP JUMP JUMPDEST PUSH0 DUP2 SWAP1 POP SWAP2 SWAP1 POP JUMP JUMPDEST PUSH2 0x1246 DUP2 PUSH2 0x1234 JUMP JUMPDEST DUP3 MSTORE POP POP JUMP JUMPDEST PUSH0 PUSH1 0x20 DUP3 ADD SWAP1 POP PUSH2 0x125F PUSH0 DUP4 ADD DUP5 PUSH2 0x123D JUMP JUMPDEST SWAP3 SWAP2 POP POP JUMP JUMPDEST PUSH2 0x126E DUP2 PUSH2 0x1234 JUMP JUMPDEST DUP2 EQ PUSH2 0x1278 JUMPI PUSH0 DUP1 REVERT JUMPDEST POP JUMP JUMPDEST PUSH0 DUP2 CALLDATALOAD SWAP1 POP PUSH2 0x1289 DUP2 PUSH2 0x1265 JUMP JUMPDEST SWAP3 SWAP2 POP POP JUMP JUMPDEST PUSH0 PUSH1 0x20 DUP3 DUP5 SUB SLT ISZERO PUSH2 0x12A4 JUMPI PUSH2 0x12A3 PUSH2 0x11CF JUMP JUMPDEST JUMPDEST PUSH0 PUSH2 0x12B1 DUP5 DUP3 DUP6 ADD PUSH2 0x127B JUMP JUMPDEST SWAP2 POP POP SWAP3 SWAP2 POP POP JUMP JUMPDEST PUSH0 PUSH20 0xFFFFFFFFFFFFFFFFFFFFFFFFFFFFFFFFFFFFFFFF DUP3 AND SWAP1 POP SWAP2 SWAP1 POP JUMP JUMPDEST PUSH0 PUSH2 0x12E3 DUP3 PUSH2 0x12BA JUMP JUMPDEST SWAP1 POP SWAP2 SWAP1 POP JUMP JUMPDEST PUSH2 0x12F3 DUP2 PUSH2 0x12D9 JUMP JUMPDEST DUP3 MSTORE POP POP JUMP JUMPDEST PUSH0 PUSH1 0x20 DUP3 ADD SWAP1 POP PUSH2 0x130C PUSH0 DUP4 ADD DUP5 PUSH2 0x12EA JUMP JUMPDEST SWAP3 SWAP2 POP POP JUMP JUMPDEST PUSH0 DUP2 ISZERO ISZERO SWAP1 POP SWAP2 SWAP1 POP JUMP JUMPDEST PUSH2 0x1326 DUP2 PUSH2 0x1312 JUMP JUMPDEST DUP3 MSTORE POP POP JUMP JUMPDEST PUSH0 PUSH1 0x20 DUP3 ADD SWAP1 POP PUSH2 0x133F PUSH0 DUP4 ADD DUP5 PUSH2 0x131D JUMP JUMPDEST SWAP3 SWAP2 POP POP JUMP JUMPDEST PUSH2 0x134E DUP2 PUSH2 0x11D3 JUMP JUMPDEST DUP3 MSTORE POP POP JUMP JUMPDEST PUSH0 PUSH1 0x20 DUP3 ADD SWAP1 POP PUSH2 0x1367 PUSH0 DUP4 ADD DUP5 PUSH2 0x1345 JUMP JUMPDEST SWAP3 SWAP2 POP POP JUMP JUMPDEST PUSH0 PUSH1 0x80 DUP3 ADD SWAP1 POP PUSH2 0x1380 PUSH0 DUP4 ADD DUP8 PUSH2 0x12EA JUMP JUMPDEST PUSH2 0x138D PUSH1 0x20 DUP4 ADD DUP7 PUSH2 0x123D JUMP JUMPDEST PUSH2 0x139A PUSH1 0x40 DUP4 ADD DUP6 PUSH2 0x123D JUMP JUMPDEST PUSH2 0x13A7 PUSH1 0x60 DUP4 ADD DUP5 PUSH2 0x131D JUMP JUMPDEST SWAP6 SWAP5 POP POP POP POP POP JUMP JUMPDEST PUSH0 DUP3 DUP3 MSTORE PUSH1 0x20 DUP3 ADD SWAP1 POP SWAP3 SWAP2 POP POP JUMP JUMPDEST PUSH32 0x496E636F7272656374207469636B657420707269636500000000000000000000 PUSH0 DUP3 ADD MSTORE POP JUMP JUMPDEST PUSH0 PUSH2 0x13F4 PUSH1 0x16 DUP4 PUSH2 0x13B0 JUMP JUMPDEST SWAP2 POP PUSH2 0x13FF DUP3 PUSH2 0x13C0 JUMP JUMPDEST PUSH1 0x20 DUP3 ADD SWAP1 POP SWAP2 SWAP1 POP JUMP JUMPDEST PUSH0 PUSH1 0x20 DUP3 ADD SWAP1 POP DUP2 DUP2 SUB PUSH0 DUP4 ADD MSTORE PUSH2 0x1421 DUP2 PUSH2 0x13E8 JUMP JUMPDEST SWAP1 POP SWAP2 SWAP1 POP JUMP JUMPDEST PUSH32 0x4C6F747465727920616C726561647920647261776E0000000000000000000000 PUSH0 DUP3 ADD MSTORE POP JUMP JUMPDEST PUSH0 PUSH2 0x145C PUSH1 0x15 DUP4 PUSH2 0x13B0 JUMP JUMPDEST SWAP2 POP PUSH2 0x1467 DUP3 PUSH2 0x1428 JUMP JUMPDEST PUSH1 0x20 DUP3 ADD SWAP1 POP SWAP2 SWAP1 POP JUMP JUMPDEST PUSH0 PUSH1 0x20 DUP3 ADD SWAP1 POP DUP2 DUP2 SUB PUSH0 DUP4 ADD MSTORE PUSH2 0x1489 DUP2 PUSH2 0x1450 JUMP JUMPDEST SWAP1 POP SWAP2 SWAP1 POP JUMP JUMPDEST PUSH32 0x5469636B6574206D757374206265206265747765656E20312D31303000000000 PUSH0 DUP3 ADD MSTORE POP JUMP JUMPDEST PUSH0 PUSH2 0x14C4 PUSH1 0x1C DUP4 PUSH2 0x13B0 JUMP JUMPDEST SWAP2 POP PUSH2 0x14CF DUP3 PUSH2 0x1490 JUMP JUMPDEST PUSH1 0x20 DUP3 ADD SWAP1 POP SWAP2 SWAP1 POP JUMP JUMPDEST PUSH0 PUSH1 0x20 DUP3 ADD SWAP1 POP DUP2 DUP2 SUB PUSH0 DUP4 ADD MSTORE PUSH2 0x14F1 DUP2 PUSH2 0x14B8 JUMP JUMPDEST SWAP1 POP SWAP2 SWAP1 POP JUMP JUMPDEST PUSH32 0x4E487B7100000000000000000000000000000000000000000000000000000000 PUSH0 MSTORE PUSH1 0x32 PUSH1 0x4 MSTORE PUSH1 0x24 PUSH0 REVERT JUMPDEST PUSH32 0x496E76616C696420726F756E6420696E64657800000000000000000000000000 PUSH0 DUP3 ADD MSTORE POP JUMP JUMPDEST PUSH0 PUSH2 0x1559 PUSH1 0x13 DUP4 PUSH2 0x13B0 JUMP JUMPDEST SWAP2 POP PUSH2 0x1564 DUP3 PUSH2 0x1525 JUMP JUMPDEST PUSH1 0x20 DUP3 ADD SWAP1 POP SWAP2 SWAP1 POP JUMP JUMPDEST PUSH0 PUSH1 0x20 DUP3 ADD SWAP1 POP DUP2 DUP2 SUB PUSH0 DUP4 ADD MSTORE PUSH2 0x1586 DUP2 PUSH2 0x154D JUMP JUMPDEST SWAP1 POP SWAP2 SWAP1 POP JUMP JUMPDEST PUSH32 0x4E6F74207468652077696E6E6572206F66207468697320726F756E6400000000 PUSH0 DUP3 ADD MSTORE POP JUMP JUMPDEST PUSH0 PUSH2 0x15C1 PUSH1 0x1C DUP4 PUSH2 0x13B0 JUMP JUMPDEST SWAP2 POP PUSH2 0x15CC DUP3 PUSH2 0x158D JUMP JUMPDEST PUSH1 0x20 DUP3 ADD SWAP1 POP SWAP2 SWAP1 POP JUMP JUMPDEST PUSH0 PUSH1 0x20 DUP3 ADD SWAP1 POP DUP2 DUP2 SUB PUSH0 DUP4 ADD MSTORE PUSH2 0x15EE DUP2 PUSH2 0x15B5 JUMP JUMPDEST SWAP1 POP SWAP2 SWAP1 POP JUMP JUMPDEST PUSH32 0x5072697A6520616C726561647920636C61696D65640000000000000000000000 PUSH0 DUP3 ADD MSTORE POP JUMP JUMPDEST PUSH0 PUSH2 0x1629 PUSH1 0x15 DUP4 PUSH2 0x13B0 JUMP JUMPDEST SWAP2 POP PUSH2 0x1634 DUP3 PUSH2 0x15F5 JUMP JUMPDEST PUSH1 0x20 DUP3 ADD SWAP1 POP SWAP2 SWAP1 POP JUMP JUMPDEST PUSH0 PUSH1 0x20 DUP3 ADD SWAP1 POP DUP2 DUP2 SUB PUSH0 DUP4 ADD MSTORE PUSH2 0x1656 DUP2 PUSH2 0x161D JUMP JUMPDEST SWAP1 POP SWAP2 SWAP1 POP JUMP JUMPDEST PUSH32 0x4E6F207072697A6520746F20636C61696D000000000000000000000000000000 PUSH0 DUP3 ADD MSTORE POP JUMP JUMPDEST PUSH0 PUSH2 0x1691 PUSH1 0x11 DUP4 PUSH2 0x13B0 JUMP JUMPDEST SWAP2 POP PUSH2 0x169C DUP3 PUSH2 0x165D JUMP JUMPDEST PUSH1 0x20 DUP3 ADD SWAP1 POP SWAP2 SWAP1 POP JUMP JUMPDEST PUSH0 PUSH1 0x20 DUP3 ADD SWAP1 POP DUP2 DUP2 SUB PUSH0 DUP4 ADD MSTORE PUSH2 0x16BE DUP2 PUSH2 0x1685 JUMP JUMPDEST SWAP1 POP SWAP2 SWAP1 POP JUMP JUMPDEST PUSH32 0x4C6F7474657279206E6F7420647261776E207965740000000000000000000000 PUSH0 DUP3 ADD MSTORE POP JUMP JUMPDEST PUSH0 PUSH2 0x16F9 PUSH1 0x15 DUP4 PUSH2 0x13B0 JUMP JUMPDEST SWAP2 POP PUSH2 0x1704 DUP3 PUSH2 0x16C5 JUMP JUMPDEST PUSH1 0x20 DUP3 ADD SWAP1 POP SWAP2 SWAP1 POP JUMP JUMPDEST PUSH0 PUSH1 0x20 DUP3 ADD SWAP1 POP DUP2 DUP2 SUB PUSH0 DUP4 ADD MSTORE PUSH2 0x1726 DUP2 PUSH2 0x16ED JUMP JUMPDEST SWAP1 POP SWAP2 SWAP1 POP JUMP JUMPDEST PUSH32 0x4E6F74207468652077696E6E6572000000000000000000000000000000000000 PUSH0 DUP3 ADD MSTORE POP JUMP JUMPDEST PUSH0 PUSH2 0x1761 PUSH1 0xE DUP4 PUSH2 0x13B0 JUMP JUMPDEST SWAP2 POP PUSH2 0x176C DUP3 PUSH2 0x172D JUMP JUMPDEST PUSH1 0x20 DUP3 ADD SWAP1 POP SWAP2 SWAP1 POP JUMP JUMPDEST PUSH0 PUSH1 0x20 DUP3 ADD SWAP1 POP DUP2 DUP2 SUB PUSH0 DUP4 ADD MSTORE PUSH2 0x178E DUP2 PUSH2 0x1755 JUMP JUMPDEST SWAP1 POP SWAP2 SWAP1 POP JUMP JUMPDEST PUSH32 0x4E487B7100000000000000000000000000000000000000000000000000000000 PUSH0 MSTORE PUSH1 0x11 PUSH1 0x4 MSTORE PUSH1 0x24 PUSH0 REVERT JUMPDEST PUSH0 PUSH2 0x17CC DUP3 PUSH2 0x1234 JUMP JUMPDEST SWAP2 POP PUSH2 0x17D7 DUP4 PUSH2 0x1234 JUMP JUMPDEST SWAP3 POP DUP3 DUP3 SUB SWAP1 POP DUP2 DUP2 GT ISZERO PUSH2 0x17EF JUMPI PUSH2 0x17EE PUSH2 0x1795 JUMP JUMPDEST JUMPDEST SWAP3 SWAP2 POP POP JUMP JUMPDEST PUSH32 0x4E6F207061727469636970616E74730000000000000000000000000000000000 PUSH0 DUP3 ADD MSTORE POP JUMP JUMPDEST PUSH0 PUSH2 0x1829 PUSH1 0xF DUP4 PUSH2 0x13B0 JUMP JUMPDEST SWAP2 POP PUSH2 0x1834 DUP3 PUSH2 0x17F5 JUMP JUMPDEST PUSH1 0x20 DUP3 ADD SWAP1 POP SWAP2 SWAP1 POP JUMP JUMPDEST PUSH0 PUSH1 0x20 DUP3 ADD SWAP1 POP DUP2 DUP2 SUB PUSH0 DUP4 ADD MSTORE PUSH2 0x1856 DUP2 PUSH2 0x181D JUMP JUMPDEST SWAP1 POP SWAP2 SWAP1 POP JUMP JUMPDEST PUSH0 PUSH2 0x1867 DUP3 PUSH2 0x1234 JUMP JUMPDEST SWAP2 POP PUSH2 0x1872 DUP4 PUSH2 0x1234 JUMP JUMPDEST SWAP3 POP DUP3 DUP3 ADD SWAP1 POP DUP1 DUP3 GT ISZERO PUSH2 0x188A JUMPI PUSH2 0x1889 PUSH2 0x1795 JUMP JUMPDEST JUMPDEST SWAP3 SWAP2 POP POP JUMP JUMPDEST PUSH32 0x44726177206E6F7420617661696C61626C6520796574206F72206E6F74206164 PUSH0 DUP3 ADD MSTORE PUSH32 0x6D696E0000000000000000000000000000000000000000000000000000000000 PUSH1 0x20 DUP3 ADD MSTORE POP JUMP JUMPDEST PUSH0 PUSH2 0x18EA PUSH1 0x23 DUP4 PUSH2 0x13B0 JUMP JUMPDEST SWAP2 POP PUSH2 0x18F5 DUP3 PUSH2 0x1890 JUMP JUMPDEST PUSH1 0x40 DUP3 ADD SWAP1 POP SWAP2 SWAP1 POP JUMP JUMPDEST PUSH0 PUSH1 0x20 DUP3 ADD SWAP1 POP DUP2 DUP2 SUB PUSH0 DUP4 ADD MSTORE PUSH2 0x1917 DUP2 PUSH2 0x18DE JUMP JUMPDEST SWAP1 POP SWAP2 SWAP1 POP JUMP JUMPDEST PUSH0 DUP2 SWAP1 POP SWAP2 SWAP1 POP JUMP JUMPDEST PUSH2 0x1938 PUSH2 0x1933 DUP3 PUSH2 0x1234 JUMP JUMPDEST PUSH2 0x191E JUMP JUMPDEST DUP3 MSTORE POP POP JUMP JUMPDEST PUSH0 PUSH2 0x1949 DUP3 DUP7 PUSH2 0x1927 JUMP JUMPDEST PUSH1 0x20 DUP3 ADD SWAP2 POP PUSH2 0x1959 DUP3 DUP6 PUSH2 0x1927 JUMP JUMPDEST PUSH1 0x20 DUP3 ADD SWAP2 POP PUSH2 0x1969 DUP3 DUP5 PUSH2 0x1927 JUMP JUMPDEST PUSH1 0x20 DUP3 ADD SWAP2 POP DUP2 SWAP1 POP SWAP5 SWAP4 POP POP POP POP JUMP JUMPDEST PUSH32 0x4E487B7100000000000000000000000000000000000000000000000000000000 PUSH0 MSTORE PUSH1 0x12 PUSH1 0x4 MSTORE PUSH1 0x24 PUSH0 REVERT JUMPDEST PUSH0 PUSH2 0x19B1 DUP3 PUSH2 0x1234 JUMP JUMPDEST SWAP2 POP PUSH2 0x19BC DUP4 PUSH2 0x1234 JUMP JUMPDEST SWAP3 POP DUP3 PUSH2 0x19CC JUMPI PUSH2 0x19CB PUSH2 0x197A JUMP JUMPDEST JUMPDEST DUP3 DUP3 MOD SWAP1 POP SWAP3 SWAP2 POP POP JUMP INVALID LOG2 PUSH5 0x6970667358 0x22 SLT KECCAK256 PUSH13 0xE33608968DD14568AE51E454E0 0xE0 TSTORE 0x22 DUP16 SWAP15 BALANCE 0xEF 0xC5 POP KECCAK256 NUMBER 0xBB DUP15 LT DUP10 0xC1 SDIV 0xAE PUSH5 0x736F6C6343 STOP ADDMOD XOR STOP CALLER "},"methodIdentifiers":{"admin()":"f851a440","buyTicket(uint8)":"023697f0","claimPastPrize(uint256)":"5b0df84e","claimPrize()":"70740ac9","drawWinner()":"b2185bb1","getBalance()":"12065fe0","getMyTicket()":"3f7daf81","getParticipantCount()":"ad605729","getPastRoundsLength()":"13cd372e","isDrawn()":"3c2bcadc","lastDrawTime()":"5cbbd635","participants(uint256)":"35c1d349","pastRounds(uint256)":"fd9ba024","startNewRound()":"bd85948c","ticketPrice()":"1209b1f6","winner()":"dfbf53ae"}}}}}