{"project/contracts/ConfidentialLottery.sol":{"ConfidentialLottery":{"abi":[{"inputs":[],"stateMutability":"nonpayable","type":"constructor"},{"anonymous":false,"inputs":[{"indexed":true,"internalType":"address","name":"admin","type":"address"},{"indexed":false,"internalType":"uint256","name":"timestamp","type":"uint256"}],"name":"LotteryReset","type":"event"},{"anonymous":false,"inputs":[{"indexed":true,"internalType":"address","name":"winner","type":"address"},{"indexed":false,"internalType":"uint256","name":"amount","type":"uint256"}],"name":"PrizeClaimed","type":"event"},{"anonymous":false,"inputs":[{"indexed":true,"internalType":"address","name":"buyer","type":"address"},{"indexed":false,"internalType":"uint8","name":"ticket","type":"uint8"}],"name":"TicketPurchased","type":"event"},{"anonymous":false,"inputs":[{"indexed":true,"internalType":"address","name":"winner","type":"address"},{"indexed":false,"internalType":"uint8","name":"winningNumber","type":"uint8"}],"name":"WinnerDrawn","type":"event"},{"inputs":[],"name":"admin","outputs":[{"internalType":"address","name":"","type":"address"}],"stateMutability":"view","type":"function"},{"inputs":[{"internalType":"uint8","name":"_ticketNumber","type":"uint8"}],"name":"buyTicket","outputs":[],"stateMutability":"payable","type":"function"},{"inputs":[{"internalType":"uint256","name":"_roundIndex","type":"uint256"}],"name":"claimPastPrize","outputs":[],"stateMutability":"nonpayable","type":"function"},{"inputs":[],"name":"claimPrize","outputs":[],"stateMutability":"nonpayable","type":"function"},{"inputs":[],"name":"drawWinner","outputs":[],"stateMutability":"nonpayable","type":"function"},{"inputs":[],"name":"getBalance","outputs":[{"internalType":"uint256","name":"","type":"uint256"}],"stateMutability":"view","type":"function"},{"inputs":[],"name":"getMyTicket","outputs":[{"internalType":"uint8","name":"","type":"uint8"}],"stateMutability":"view","type":"function"},{"inputs":[],"name":"getParticipantCount","outputs":[{"internalType":"uint256","name":"","type":"uint256"}],"stateMutability":"view","type":"function"},{"inputs":[],"name":"getPastRoundsLength","outputs":[{"internalType":"uint256","name":"","type":"uint256"}],"stateMutability":"view","type":"function"},{"inputs":[],"name":"isDrawn","outputs":[{"internalType":"bool","name":"","type":"bool"}],"stateMutability":"view","type":"function"},{"inputs":[],"name":"lastDrawTime","outputs":[{"internalType":"uint256","name":"","type":"uint256"}],"stateMutability":"view","type":"function"},{"inputs":[{"internalType":"uint256","name":"","type":"uint256"}],"name":"participants","outputs":[{"internalType":"address","name":"","type":"address"}],"stateMutability":"view","type":"function"},{"inputs":[{"internalType":"uint256","name":"","type":"uint256"}],"name":"pastRounds","outputs":[{"internalType":"address","name":"winner","type":"address"},{"internalType":"uint256","name":"prize","type":"uint256"},{"internalType":"uint256","name":"drawTime","type":"uint256"},{"internalType":"bool","name":"claimed","type":"bool"}],"stateMutability":"view","type":"function"},{"inputs":[],"name":"resetLottery","outputs":[],"stateMutability":"nonpayable","type":"function"},{"inputs":[],"name":"startNewRound","outputs":[],"stateMutability":"nonpayable","type":"function"},{"inputs":[],"name":"ticketPrice","outputs":[{"internalType":"uint256","name":"","type":"uint256"}],"stateMutability":"view","type":"function"},{"inputs":[{"internalType":"address","name":"_newAdmin","type":"address"}],"name":"updateAdmin","outputs":[],"stateMutability":"nonpayable","type":"function"},{"inputs":[],"name":"winner","outputs":[{"internalType":"address","name":"","type":"address"}],"stateMutability":"view","type":"function"}],"evm":{"bytecode":{"linkReferences":{},"object":"6080604052655af3107a4000600255348015610019575f80fd5b503360045f6101000a81548173ffffffffffffffffffffffffffffffffffffffff021916908373ffffffffffffffffffffffffffffffffffffffff160217905550611eca806100675f395ff3fe608060405260043610610108575f3560e01c806370740ac911610094578063d337616e11610063578063d337616e146102f4578063dfbf53ae1461030a578063e2f273bd14610334578063f851a4401461035c578063fd9ba0241461038657610108565b806370740ac914610288578063ad6057291461029e578063b2185bb1146102c8578063bd85948c146102de57610108565b806335c1d349116100db57806335c1d349146101a65780633c2bcadc146101e25780633f7daf811461020c5780635b0df84e146102365780635cbbd6351461025e57610108565b8063023697f01461010c57806312065fe0146101285780631209b1f61461015257806313cd372e1461017c575b5f80fd5b61012660048036038101906101219190611539565b6103c5565b005b348015610133575f80fd5b5061013c610674565b604051610149919061157c565b60405180910390f35b34801561015d575f80fd5b5061016661067b565b604051610173919061157c565b60405180910390f35b348015610187575f80fd5b50610190610681565b60405161019d919061157c565b60405180910390f35b3480156101b1575f80fd5b506101cc60048036038101906101c791906115bf565b61068d565b6040516101d99190611629565b60405180910390f35b3480156101ed575f80fd5b506101f66106c8565b604051610203919061165c565b60405180910390f35b348015610217575f80fd5b506102206106db565b60405161022d9190611684565b60405180910390f35b348015610241575f80fd5b5061025c600480360381019061025791906115bf565b61072a565b005b348015610269575f80fd5b506102726109ca565b60405161027f919061157c565b60405180910390f35b348015610293575f80fd5b5061029c6109d0565b005b3480156102a9575f80fd5b506102b2610c25565b6040516102bf919061157c565b60405180910390f35b3480156102d3575f80fd5b506102dc610c31565b005b3480156102e9575f80fd5b506102f261102d565b005b3480156102ff575f80fd5b5061030861113a565b005b348015610315575f80fd5b5061031e6112d6565b60405161032b9190611629565b60405180910390f35b34801561033f575f80fd5b5061035a600480360381019061035591906116c7565b6112fb565b005b348015610367575f80fd5b5061037061143b565b60405161037d9190611629565b60405180910390f35b348015610391575f80fd5b506103ac60048036038101906103a791906115bf565b611460565b6040516103bc94939291906116f2565b60405180910390f35b6002543414610409576040517f08c379a00000000000000000000000000000000000000000000000000000000081526004016104009061178f565b60405180910390fd5b600160149054906101000a900460ff1615610459576040517f08c379a0000000000000000000000000000000000000000000000000000000008152600401610450906117f7565b60405180910390fd5b60018160ff1610158015610471575060648160ff1611155b6104b0576040517f08c379a00000000000000000000000000000000000000000000000000000000081526004016104a79061185f565b60405180910390fd5b805f803373ffffffffffffffffffffffffffffffffffffffff1673ffffffffffffffffffffffffffffffffffffffff1681526020019081526020015f205f6101000a81548160ff021916908360ff1602179055505f805b600380549050811015610598573373ffffffffffffffffffffffffffffffffffffffff166003828154811061053f5761053e61187d565b5b905f5260205f20015f9054906101000a900473ffffffffffffffffffffffffffffffffffffffff1673ffffffffffffffffffffffffffffffffffffffff160361058b5760019150610598565b8080600101915050610507565b50806105ff57600333908060018154018082558091505060019003905f5260205f20015f9091909190916101000a81548173ffffffffffffffffffffffffffffffffffffffff021916908373ffffffffffffffffffffffffffffffffffffffff1602179055505b600160038054905014801561061557505f600554145b1561062257426005819055505b3373ffffffffffffffffffffffffffffffffffffffff167f544a428276e01bd3774fe90de75fee1b2b8bd04d8e999814d59efaa3b70318e7836040516106689190611684565b60405180910390a25050565b5f47905090565b60025481565b5f600680549050905090565b6003818154811061069c575f80fd5b905f5260205f20015f915054906101000a900473ffffffffffffffffffffffffffffffffffffffff1681565b600160149054906101000a900460ff1681565b5f805f3373ffffffffffffffffffffffffffffffffffffffff1673ffffffffffffffffffffffffffffffffffffffff1681526020019081526020015f205f9054906101000a900460ff16905090565b6006805490508110610771576040517f08c379a0000000000000000000000000000000000000000000000000000000008152600401610768906118f4565b60405180910390fd5b600681815481106107855761078461187d565b5b905f5260205f2090600402015f015f9054906101000a900473ffffffffffffffffffffffffffffffffffffffff1673ffffffffffffffffffffffffffffffffffffffff163373ffffffffffffffffffffffffffffffffffffffff1614610820576040517f08c379a00000000000000000000000000000000000000000000000000000000081526004016108179061195c565b60405180910390fd5b600681815481106108345761083361187d565b5b905f5260205f2090600402016003015f9054906101000a900460ff1615610890576040517f08c379a0000000000000000000000000000000000000000000000000000000008152600401610887906119c4565b60405180910390fd5b5f600682815481106108a5576108a461187d565b5b905f5260205f2090600402016001015490505f81116108f9576040517f08c379a00000000000000000000000000000000000000000000000000000000081526004016108f090611a2c565b60405180910390fd5b60016006838154811061090f5761090e61187d565b5b905f5260205f2090600402016003015f6101000a81548160ff0219169083151502179055503373ffffffffffffffffffffffffffffffffffffffff166108fc8290811502906040515f60405180830381858888f19350505050158015610977573d5f803e3d5ffd5b503373ffffffffffffffffffffffffffffffffffffffff167f95681e512bc0fe659e195e06c283eada494316f3d801213e48e7101af92bf770826040516109be919061157c565b60405180910390a25050565b60055481565b600160149054906101000a900460ff16610a1f576040517f08c379a0000000000000000000000000000000000000000000000000000000008152600401610a1690611a94565b60405180910390fd5b60015f9054906101000a900473ffffffffffffffffffffffffffffffffffffffff1673ffffffffffffffffffffffffffffffffffffffff163373ffffffffffffffffffffffffffffffffffffffff1614610aae576040517f08c379a0000000000000000000000000000000000000000000000000000000008152600401610aa590611afc565b60405180910390fd5b5f4790505f8111610af4576040517f08c379a0000000000000000000000000000000000000000000000000000000008152600401610aeb90611a2c565b60405180910390fd5b60015f9054906101000a900473ffffffffffffffffffffffffffffffffffffffff1673ffffffffffffffffffffffffffffffffffffffff166108fc8290811502906040515f60405180830381858888f19350505050158015610b58573d5f803e3d5ffd5b505f6006805490501115610bb357600160066001600680549050610b7c9190611b47565b81548110610b8d57610b8c61187d565b5b905f5260205f2090600402016003015f6101000a81548160ff0219169083151502179055505b60015f9054906101000a900473ffffffffffffffffffffffffffffffffffffffff1673ffffffffffffffffffffffffffffffffffffffff167f95681e512bc0fe659e195e06c283eada494316f3d801213e48e7101af92bf77082604051610c1a919061157c565b60405180910390a250565b5f600380549050905090565b600160149054906101000a900460ff1615610c81576040517f08c379a0000000000000000000000000000000000000000000000000000000008152600401610c78906117f7565b60405180910390fd5b5f60038054905011610cc8576040517f08c379a0000000000000000000000000000000000000000000000000000000008152600401610cbf90611bc4565b60405180910390fd5b60045f9054906101000a900473ffffffffffffffffffffffffffffffffffffffff1673ffffffffffffffffffffffffffffffffffffffff163373ffffffffffffffffffffffffffffffffffffffff161480610d325750610258600554610d2e9190611be2565b4210155b610d71576040517f08c379a0000000000000000000000000000000000000000000000000000000008152600401610d6890611c85565b60405180910390fd5b5f6003805490504244600380549050604051602001610d9293929190611cc3565b604051602081830303815290604052805190602001205f1c610db49190611d2c565b905060038181548110610dca57610dc961187d565b5b905f5260205f20015f9054906101000a900473ffffffffffffffffffffffffffffffffffffffff1660015f6101000a81548173ffffffffffffffffffffffffffffffffffffffff021916908373ffffffffffffffffffffffffffffffffffffffff16021790555060018060146101000a81548160ff021916908315150217905550426005819055506006604051806080016040528060015f9054906101000a900473ffffffffffffffffffffffffffffffffffffffff1673ffffffffffffffffffffffffffffffffffffffff1681526020014781526020014281526020015f1515815250908060018154018082558091505060019003905f5260205f2090600402015f909190919091505f820151815f015f6101000a81548173ffffffffffffffffffffffffffffffffffffffff021916908373ffffffffffffffffffffffffffffffffffffffff16021790555060208201518160010155604082015181600201556060820151816003015f6101000a81548160ff02191690831515021790555050505f805f60015f9054906101000a900473ffffffffffffffffffffffffffffffffffffffff1673ffffffffffffffffffffffffffffffffffffffff1673ffffffffffffffffffffffffffffffffffffffff1681526020019081526020015f205f9054906101000a900460ff16905060015f9054906101000a900473ffffffffffffffffffffffffffffffffffffffff1673ffffffffffffffffffffffffffffffffffffffff167f097f81796acde1f8350124eadba95449daef1cfdbc53c651caa49b7b1673a0cf826040516110219190611684565b60405180910390a25050565b600160149054906101000a900460ff1661107c576040517f08c379a000000000000000000000000000000000000000000000000000000000815260040161107390611a94565b60405180910390fd5b5f600160146101000a81548160ff0219169083151502179055505f60015f6101000a81548173ffffffffffffffffffffffffffffffffffffffff021916908373ffffffffffffffffffffffffffffffffffffffff1602179055504260058190555060035f6110ea91906114c6565b3373ffffffffffffffffffffffffffffffffffffffff167f98ab7e823882180c9f7d9ed464e68d4f8fbe0dde6ac4e6f9ef956dbc424e619242604051611130919061157c565b60405180910390a2565b60045f9054906101000a900473ffffffffffffffffffffffffffffffffffffffff1673ffffffffffffffffffffffffffffffffffffffff163373ffffffffffffffffffffffffffffffffffffffff16146111c9576040517f08c379a00000000000000000000000000000000000000000000000000000000081526004016111c090611da6565b60405180910390fd5b600160149054906101000a900460ff16611218576040517f08c379a000000000000000000000000000000000000000000000000000000000815260040161120f90611a94565b60405180910390fd5b5f600160146101000a81548160ff0219169083151502179055505f60015f6101000a81548173ffffffffffffffffffffffffffffffffffffffff021916908373ffffffffffffffffffffffffffffffffffffffff1602179055504260058190555060035f61128691906114c6565b3373ffffffffffffffffffffffffffffffffffffffff167f98ab7e823882180c9f7d9ed464e68d4f8fbe0dde6ac4e6f9ef956dbc424e6192426040516112cc919061157c565b60405180910390a2565b60015f9054906101000a900473ffffffffffffffffffffffffffffffffffffffff1681565b60045f9054906101000a900473ffffffffffffffffffffffffffffffffffffffff1673ffffffffffffffffffffffffffffffffffffffff163373ffffffffffffffffffffffffffffffffffffffff161461138a576040517f08c379a000000000000000000000000000000000000000000000000000000000815260040161138190611e0e565b60405180910390fd5b5f73ffffffffffffffffffffffffffffffffffffffff168173ffffffffffffffffffffffffffffffffffffffff16036113f8576040517f08c379a00000000000000000000000000000000000000000000000000000000081526004016113ef90611e76565b60405180910390fd5b8060045f6101000a81548173ffffffffffffffffffffffffffffffffffffffff021916908373ffffffffffffffffffffffffffffffffffffffff16021790555050565b60045f9054906101000a900473ffffffffffffffffffffffffffffffffffffffff1681565b6006818154811061146f575f80fd5b905f5260205f2090600402015f91509050805f015f9054906101000a900473ffffffffffffffffffffffffffffffffffffffff1690806001015490806002015490806003015f9054906101000a900460ff16905084565b5080545f8255905f5260205f20908101906114e191906114e4565b50565b5b808211156114fb575f815f9055506001016114e5565b5090565b5f80fd5b5f60ff82169050919050565b61151881611503565b8114611522575f80fd5b50565b5f813590506115338161150f565b92915050565b5f6020828403121561154e5761154d6114ff565b5b5f61155b84828501611525565b91505092915050565b5f819050919050565b61157681611564565b82525050565b5f60208201905061158f5f83018461156d565b92915050565b61159e81611564565b81146115a8575f80fd5b50565b5f813590506115b981611595565b92915050565b5f602082840312156115d4576115d36114ff565b5b5f6115e1848285016115ab565b91505092915050565b5f73ffffffffffffffffffffffffffffffffffffffff82169050919050565b5f611613826115ea565b9050919050565b61162381611609565b82525050565b5f60208201905061163c5f83018461161a565b92915050565b5f8115159050919050565b61165681611642565b82525050565b5f60208201905061166f5f83018461164d565b92915050565b61167e81611503565b82525050565b5f6020820190506116975f830184611675565b92915050565b6116a681611609565b81146116b0575f80fd5b50565b5f813590506116c18161169d565b92915050565b5f602082840312156116dc576116db6114ff565b5b5f6116e9848285016116b3565b91505092915050565b5f6080820190506117055f83018761161a565b611712602083018661156d565b61171f604083018561156d565b61172c606083018461164d565b95945050505050565b5f82825260208201905092915050565b7f496e636f7272656374207469636b6574207072696365000000000000000000005f82015250565b5f611779601683611735565b915061178482611745565b602082019050919050565b5f6020820190508181035f8301526117a68161176d565b9050919050565b7f4c6f747465727920616c726561647920647261776e00000000000000000000005f82015250565b5f6117e1601583611735565b91506117ec826117ad565b602082019050919050565b5f6020820190508181035f83015261180e816117d5565b9050919050565b7f5469636b6574206d757374206265206265747765656e20312d313030000000005f82015250565b5f611849601c83611735565b915061185482611815565b602082019050919050565b5f6020820190508181035f8301526118768161183d565b9050919050565b7f4e487b71000000000000000000000000000000000000000000000000000000005f52603260045260245ffd5b7f496e76616c696420726f756e6420696e646578000000000000000000000000005f82015250565b5f6118de601383611735565b91506118e9826118aa565b602082019050919050565b5f6020820190508181035f83015261190b816118d2565b9050919050565b7f4e6f74207468652077696e6e6572206f66207468697320726f756e64000000005f82015250565b5f611946601c83611735565b915061195182611912565b602082019050919050565b5f6020820190508181035f8301526119738161193a565b9050919050565b7f5072697a6520616c726561647920636c61696d656400000000000000000000005f82015250565b5f6119ae601583611735565b91506119b98261197a565b602082019050919050565b5f6020820190508181035f8301526119db816119a2565b9050919050565b7f4e6f207072697a6520746f20636c61696d0000000000000000000000000000005f82015250565b5f611a16601183611735565b9150611a21826119e2565b602082019050919050565b5f6020820190508181035f830152611a4381611a0a565b9050919050565b7f4c6f7474657279206e6f7420647261776e2079657400000000000000000000005f82015250565b5f611a7e601583611735565b9150611a8982611a4a565b602082019050919050565b5f6020820190508181035f830152611aab81611a72565b9050919050565b7f4e6f74207468652077696e6e65720000000000000000000000000000000000005f82015250565b5f611ae6600e83611735565b9150611af182611ab2565b602082019050919050565b5f6020820190508181035f830152611b1381611ada565b9050919050565b7f4e487b71000000000000000000000000000000000000000000000000000000005f52601160045260245ffd5b5f611b5182611564565b9150611b5c83611564565b9250828203905081811115611b7457611b73611b1a565b5b92915050565b7f4e6f207061727469636970616e747300000000000000000000000000000000005f82015250565b5f611bae600f83611735565b9150611bb982611b7a565b602082019050919050565b5f6020820190508181035f830152611bdb81611ba2565b9050919050565b5f611bec82611564565b9150611bf783611564565b9250828201905080821115611c0f57611c0e611b1a565b5b92915050565b7f44726177206e6f7420617661696c61626c6520796574206f72206e6f742061645f8201527f6d696e0000000000000000000000000000000000000000000000000000000000602082015250565b5f611c6f602383611735565b9150611c7a82611c15565b604082019050919050565b5f6020820190508181035f830152611c9c81611c63565b9050919050565b5f819050919050565b611cbd611cb882611564565b611ca3565b82525050565b5f611cce8286611cac565b602082019150611cde8285611cac565b602082019150611cee8284611cac565b602082019150819050949350505050565b7f4e487b71000000000000000000000000000000000000000000000000000000005f52601260045260245ffd5b5f611d3682611564565b9150611d4183611564565b925082611d5157611d50611cff565b5b828206905092915050565b7f4f6e6c792061646d696e2063616e207265736574206c6f7474657279000000005f82015250565b5f611d90601c83611735565b9150611d9b82611d5c565b602082019050919050565b5f6020820190508181035f830152611dbd81611d84565b9050919050565b7f4f6e6c792061646d696e2063616e207570646174652061646d696e00000000005f82015250565b5f611df8601b83611735565b9150611e0382611dc4565b602082019050919050565b5f6020820190508181035f830152611e2581611dec565b9050919050565b7f496e76616c69642061646d696e206164647265737300000000000000000000005f82015250565b5f611e60601583611735565b9150611e6b82611e2c565b602082019050919050565b5f6020820190508181035f830152611e8d81611e54565b905091905056fea2646970667358221220e88262f5098026bc61c429e3316463bc41a7b5d08a10b0626016978bbf25296664736f6c63430008180033","opcodes":"PUSH1 0x80 PUSH1 0x40 MSTORE PUSH6 0x5AF3107A4000 PUSH1 0x2 SSTORE CALLVALUE DUP1 ISZERO PUSH2 0x19 JUMPI PUSH0 DUP1 REVERT JUMPDEST POP CALLER PUSH1 0x4 PUSH0 PUSH2 0x100 EXP DUP2 SLOAD DUP2 PUSH20 0xFFFFFFFFFFFFFFFFFFFFFFFFFFFFFFFFFFFFFFFF MUL NOT AND SWAP1 DUP4 PUSH20 0xFFFFFFFFFFFFFFFFFFFFFFFFFFFFFFFFFFFFFFFF AND MUL OR SWAP1 SSTORE POP PUSH2 0x1ECA DUP1 PUSH2 0x67 PUSH0 CODECOPY PUSH0 RETURN INVALID PUSH1 0x80 PUSH1 0x40 MSTORE PUSH1 0x4 CALLDATASIZE LT PUSH2 0x108 JUMPI PUSH0 CALLDATALOAD PUSH1 0xE0 SHR DUP1 PUSH4 0x70740AC9 GT PUSH2 0x94 JUMPI DUP1 PUSH4 0xD337616E GT PUSH2 0x63 JUMPI DUP1 PUSH4 0xD337616E EQ PUSH2 0x2F4 JUMPI DUP1 PUSH4 0xDFBF53AE EQ PUSH2 0x30A JUMPI DUP1 PUSH4 0xE2F273BD EQ PUSH2 0x334 JUMPI DUP1 PUSH4 0xF851A440 EQ PUSH2 0x35C JUMPI DUP1 PUSH4 0xFD9BA024 EQ PUSH2 0x386 JUMPI PUSH2 0x108 JUMP JUMPDEST DUP1 PUSH4 0x70740AC9 EQ PUSH2 0x288 JUMPI DUP1 PUSH4 0xAD605729 EQ PUSH2 0x29E JUMPI DUP1 PUSH4 0xB2185BB1 EQ PUSH2 0x2C8 JUMPI DUP1 PUSH4 0xBD85948C EQ PUSH2 0x2DE JUMPI PUSH2 0x108 JUMP JUMPDEST DUP1 PUSH4 0x35C1D349 GT PUSH2 0xDB JUMPI DUP1 PUSH4 0x35C1D349 EQ PUSH2 0x1A6 JUMPI DUP1 PUSH4 0x3C2BCADC EQ PUSH2 0x1E2 JUMPI DUP1 PUSH4 0x3F7DAF81 EQ PUSH2 0x20C JUMPI DUP1 PUSH4 0x5B0DF84E EQ PUSH2 0x236 JUMPI DUP1 PUSH4 0x5CBBD635 EQ PUSH2 0x25E JUMPI PUSH2 0x108 JUMP JUMPDEST DUP1 PUSH4 0x23697F0 EQ PUSH2 0x10C JUMPI DUP1 PUSH4 0x12065FE0 EQ PUSH2 0x128 JUMPI DUP1 PUSH4 0x1209B1F6 EQ PUSH2 0x152 JUMPI DUP1 PUSH4 0x13CD372E EQ PUSH2 0x17C JUMPI JUMPDEST PUSH0 DUP1 REVERT JUMPDEST PUSH2 0x126 PUSH1 0x4 DUP1 CALLDATASIZE SUB DUP2 ADD SWAP1 PUSH2 0x121 SWAP2 SWAP1 PUSH2 0x1539 JUMP JUMPDEST PUSH2 0x3C5 JUMP JUMPDEST STOP JUMPDEST CALLVALUE DUP1 ISZERO PUSH2 0x133 JUMPI PUSH0 DUP1 REVERT JUMPDEST POP PUSH2 0x13C PUSH2 0x674 JUMP JUMPDEST PUSH1 0x40 MLOAD PUSH2 0x149 SWAP2 SWAP1 PUSH2 0x157C JUMP JUMPDEST PUSH1 0x40 MLOAD DUP1 SWAP2 SUB SWAP1 RETURN JUMPDEST CALLVALUE DUP1 ISZERO PUSH2 0x15D JUMPI PUSH0 DUP1 REVERT JUMPDEST POP PUSH2 0x166 PUSH2 0x67B JUMP JUMPDEST PUSH1 0x40 MLOAD PUSH2 0x173 SWAP2 SWAP1 PUSH2 0x157C JUMP JUMPDEST PUSH1 0x40 MLOAD DUP1 SWAP2 SUB SWAP1 RETURN JUMPDEST CALLVALUE DUP1 ISZERO PUSH2 0x187 JUMPI PUSH0 DUP1 REVERT JUMPDEST POP PUSH2 0x190 PUSH2 0x681 JUMP JUMPDEST PUSH1 0x40 MLOAD PUSH2 0x19D SWAP2 SWAP1 PUSH2 0x157C JUMP JUMPDEST PUSH1 0x40 MLOAD DUP1 SWAP2 SUB SWAP1 RETURN JUMPDEST CALLVALUE DUP1 ISZERO PUSH2 0x1B1 JUMPI PUSH0 DUP1 REVERT JUMPDEST POP PUSH2 0x1CC PUSH1 0x4 DUP1 CALLDATASIZE SUB DUP2 ADD SWAP1 PUSH2 0x1C7 SWAP2 SWAP1 PUSH2 0x15BF JUMP JUMPDEST PUSH2 0x68D JUMP JUMPDEST PUSH1 0x40 MLOAD PUSH2 0x1D9 SWAP2 SWAP1 PUSH2 0x1629 JUMP JUMPDEST PUSH1 0x40 MLOAD DUP1 SWAP2 SUB SWAP1 RETURN JUMPDEST CALLVALUE DUP1 ISZERO PUSH2 0x1ED JUMPI PUSH0 DUP1 REVERT JUMPDEST POP PUSH2 0x1F6 PUSH2 0x6C8 JUMP JUMPDEST PUSH1 0x40 MLOAD PUSH2 0x203 SWAP2 SWAP1 PUSH2 0x165C JUMP JUMPDEST PUSH1 0x40 MLOAD DUP1 SWAP2 SUB SWAP1 RETURN JUMPDEST CALLVALUE DUP1 ISZERO PUSH2 0x217 JUMPI PUSH0 DUP1 REVERT JUMPDEST POP PUSH2 0x220 PUSH2 0x6DB JUMP JUMPDEST PUSH1 0x40 MLOAD PUSH2 0x22D SWAP2 SWAP1 PUSH2 0x1684 JUMP JUMPDEST PUSH1 0x40 MLOAD DUP1 SWAP2 SUB SWAP1 RETURN JUMPDEST CALLVALUE DUP1 ISZERO PUSH2 0x241 JUMPI PUSH0 DUP1 REVERT JUMPDEST POP PUSH2 0x25C PUSH1 0x4 DUP1 CALLDATASIZE SUB DUP2 ADD SWAP1 PUSH2 0x257 SWAP2 SWAP1 PUSH2 0x15BF JUMP JUMPDEST PUSH2 0x72A JUMP JUMPDEST STOP JUMPDEST CALLVALUE DUP1 ISZERO PUSH2 0x269 JUMPI PUSH0 DUP1 REVERT JUMPDEST POP PUSH2 0x272 PUSH2 0x9CA JUMP JUMPDEST PUSH1 0x40 MLOAD PUSH2 0x27F SWAP2 SWAP1 PUSH2 0x157C JUMP JUMPDEST PUSH1 0x40 MLOAD DUP1 SWAP2 SUB SWAP1 RETURN JUMPDEST CALLVALUE DUP1 ISZERO PUSH2 0x293 JUMPI PUSH0 DUP1 REVERT JUMPDEST POP PUSH2 0x29C PUSH2 0x9D0 JUMP JUMPDEST STOP JUMPDEST CALLVALUE DUP1 ISZERO PUSH2 0x2A9 JUMPI PUSH0 DUP1 REVERT JUMPDEST POP PUSH2 0x2B2 PUSH2 0xC25 JUMP JUMPDEST PUSH1 0x40 MLOAD PUSH2 0x2BF SWAP2 SWAP1 PUSH2 0x157C JUMP JUMPDEST PUSH1 0x40 MLOAD DUP1 SWAP2 SUB SWAP1 RETURN JUMPDEST CALLVALUE DUP1 ISZERO PUSH2 0x2D3 JUMPI PUSH0 DUP1 REVERT JUMPDEST POP PUSH2 0x2DC PUSH2 0xC31 JUMP JUMPDEST STOP JUMPDEST CALLVALUE DUP1 ISZERO PUSH2 0x2E9 JUMPI PUSH0 DUP1 REVERT JUMPDEST POP PUSH2 0x2F2 PUSH2 0x102D JUMP JUMPDEST STOP JUMPDEST CALLVALUE DUP1 ISZERO PUSH2 0x2FF JUMPI PUSH0 DUP1 REVERT JUMPDEST POP PUSH2 0x308 PUSH2 0x113A JUMP JUMPDEST STOP JUMPDEST CALLVALUE DUP1 ISZERO PUSH2 0x315 JUMPI PUSH0 DUP1 REVERT JUMPDEST POP PUSH2 0x31E PUSH2 0x12D6 JUMP JUMPDEST PUSH1 0x40 MLOAD PUSH2 0x32B SWAP2 SWAP1 PUSH2 0x1629 JUMP JUMPDEST PUSH1 0x40 MLOAD DUP1 SWAP2 SUB SWAP1 RETURN JUMPDEST CALLVALUE DUP1 ISZERO PUSH2 0x33F JUMPI PUSH0 DUP1 REVERT JUMPDEST POP PUSH2 0x35A PUSH1 0x4 DUP1 CALLDATASIZE SUB DUP2 ADD SWAP1 PUSH2 0x355 SWAP2 SWAP1 PUSH2 0x16C7 JUMP JUMPDEST PUSH2 0x12FB JUMP JUMPDEST STOP JUMPDEST CALLVALUE DUP1 ISZERO PUSH2 0x367 JUMPI PUSH0 DUP1 REVERT JUMPDEST POP PUSH2 0x370 PUSH2 0x143B JUMP JUMPDEST PUSH1 0x40 MLOAD PUSH2 0x37D SWAP2 SWAP1 PUSH2 0x1629 JUMP JUMPDEST PUSH1 0x40 MLOAD DUP1 SWAP2 SUB SWAP1 RETURN JUMPDEST CALLVALUE DUP1 ISZERO PUSH2 0x391 JUMPI PUSH0 DUP1 REVERT JUMPDEST POP PUSH2 0x3AC PUSH1 0x4 DUP1 CALLDATASIZE SUB DUP2 ADD SWAP1 PUSH2 0x3A7 SWAP2 SWAP1 PUSH2 0x15BF JUMP JUMPDEST PUSH2 0x1460 JUMP JUMPDEST PUSH1 0x40 MLOAD PUSH2 0x3BC SWAP5 SWAP4 SWAP3 SWAP2 SWAP1 PUSH2 0x16F2 JUMP JUMPDEST PUSH1 0x40 MLOAD DUP1 SWAP2 SUB SWAP1 RETURN JUMPDEST PUSH1 0x2 SLOAD CALLVALUE EQ PUSH2 0x409 JUMPI PUSH1 0x40 MLOAD PUSH32 0x8C379A000000000000000000000000000000000000000000000000000000000 DUP2 MSTORE PUSH1 0x4 ADD PUSH2 0x400 SWAP1 PUSH2 0x178F JUMP JUMPDEST PUSH1 0x40 MLOAD DUP1 SWAP2 SUB SWAP1 REVERT JUMPDEST PUSH1 0x1 PUSH1 0x14 SWAP1 SLOAD SWAP1 PUSH2 0x100 EXP SWAP1 DIV PUSH1 0xFF AND ISZERO PUSH2 0x459 JUMPI PUSH1 0x40 MLOAD PUSH32 0x8C379A000000000000000000000000000000000000000000000000000000000 DUP2 MSTORE PUSH1 0x4 ADD PUSH2 0x450 SWAP1 PUSH2 0x17F7 JUMP JUMPDEST PUSH1 0x40 MLOAD DUP1 SWAP2 SUB SWAP1 REVERT JUMPDEST PUSH1 0x1 DUP2 PUSH1 0xFF AND LT ISZERO DUP1 ISZERO PUSH2 0x471 JUMPI POP PUSH1 0x64 DUP2 PUSH1 0xFF AND GT ISZERO JUMPDEST PUSH2 0x4B0 JUMPI PUSH1 0x40 MLOAD PUSH32 0x8C379A000000000000000000000000000000000000000000000000000000000 DUP2 MSTORE PUSH1 0x4 ADD PUSH2 0x4A7 SWAP1 PUSH2 0x185F JUMP JUMPDEST PUSH1 0x40 MLOAD DUP1 SWAP2 SUB SWAP1 REVERT JUMPDEST DUP1 PUSH0 DUP1 CALLER PUSH20 0xFFFFFFFFFFFFFFFFFFFFFFFFFFFFFFFFFFFFFFFF AND PUSH20 0xFFFFFFFFFFFFFFFFFFFFFFFFFFFFFFFFFFFFFFFF AND DUP2 MSTORE PUSH1 0x20 ADD SWAP1 DUP2 MSTORE PUSH1 0x20 ADD PUSH0 KECCAK256 PUSH0 PUSH2 0x100 EXP DUP2 SLOAD DUP2 PUSH1 0xFF MUL NOT AND SWAP1 DUP4 PUSH1 0xFF AND MUL OR SWAP1 SSTORE POP PUSH0 DUP1 JUMPDEST PUSH1 0x3 DUP1 SLOAD SWAP1 POP DUP2 LT ISZERO PUSH2 0x598 JUMPI CALLER PUSH20 0xFFFFFFFFFFFFFFFFFFFFFFFFFFFFFFFFFFFFFFFF AND PUSH1 0x3 DUP3 DUP2 SLOAD DUP2 LT PUSH2 0x53F JUMPI PUSH2 0x53E PUSH2 0x187D JUMP JUMPDEST JUMPDEST SWAP1 PUSH0 MSTORE PUSH1 0x20 PUSH0 KECCAK256 ADD PUSH0 SWAP1 SLOAD SWAP1 PUSH2 0x100 EXP SWAP1 DIV PUSH20 0xFFFFFFFFFFFFFFFFFFFFFFFFFFFFFFFFFFFFFFFF AND PUSH20 0xFFFFFFFFFFFFFFFFFFFFFFFFFFFFFFFFFFFFFFFF AND SUB PUSH2 0x58B JUMPI PUSH1 0x1 SWAP2 POP PUSH2 0x598 JUMP JUMPDEST DUP1 DUP1 PUSH1 0x1 ADD SWAP2 POP POP PUSH2 0x507 JUMP JUMPDEST POP DUP1 PUSH2 0x5FF JUMPI PUSH1 0x3 CALLER SWAP1 DUP1 PUSH1 0x1 DUP2 SLOAD ADD DUP1 DUP3 SSTORE DUP1 SWAP2 POP POP PUSH1 0x1 SWAP1 SUB SWAP1 PUSH0 MSTORE PUSH1 0x20 PUSH0 KECCAK256 ADD PUSH0 SWAP1 SWAP2 SWAP1 SWAP2 SWAP1 SWAP2 PUSH2 0x100 EXP DUP2 SLOAD DUP2 PUSH20 0xFFFFFFFFFFFFFFFFFFFFFFFFFFFFFFFFFFFFFFFF MUL NOT AND SWAP1 DUP4 PUSH20 0xFFFFFFFFFFFFFFFFFFFFFFFFFFFFFFFFFFFFFFFF AND MUL OR SWAP1 SSTORE POP JUMPDEST PUSH1 0x1 PUSH1 0x3 DUP1 SLOAD SWAP1 POP EQ DUP1 ISZERO PUSH2 0x615 JUMPI POP PUSH0 PUSH1 0x5 SLOAD EQ JUMPDEST ISZERO PUSH2 0x622 JUMPI TIMESTAMP PUSH1 0x5 DUP2 SWAP1 SSTORE POP JUMPDEST CALLER PUSH20 0xFFFFFFFFFFFFFFFFFFFFFFFFFFFFFFFFFFFFFFFF AND PUSH32 0x544A428276E01BD3774FE90DE75FEE1B2B8BD04D8E999814D59EFAA3B70318E7 DUP4 PUSH1 0x40 MLOAD PUSH2 0x668 SWAP2 SWAP1 PUSH2 0x1684 JUMP JUMPDEST PUSH1 0x40 MLOAD DUP1 SWAP2 SUB SWAP1 LOG2 POP POP JUMP JUMPDEST PUSH0 SELFBALANCE SWAP1 POP SWAP1 JUMP JUMPDEST PUSH1 0x2 SLOAD DUP2 JUMP JUMPDEST PUSH0 PUSH1 0x6 DUP1 SLOAD SWAP1 POP SWAP1 POP SWAP1 JUMP JUMPDEST PUSH1 0x3 DUP2 DUP2 SLOAD DUP2 LT PUSH2 0x69C JUMPI PUSH0 DUP1 REVERT JUMPDEST SWAP1 PUSH0 MSTORE PUSH1 0x20 PUSH0 KECCAK256 ADD PUSH0 SWAP2 POP SLOAD SWAP1 PUSH2 0x100 EXP SWAP1 DIV PUSH20 0xFFFFFFFFFFFFFFFFFFFFFFFFFFFFFFFFFFFFFFFF AND DUP2 JUMP JUMPDEST PUSH1 0x1 PUSH1 0x14 SWAP1 SLOAD SWAP1 PUSH2 0x100 EXP SWAP1 DIV PUSH1 0xFF AND DUP2 JUMP JUMPDEST PUSH0 DUP1 PUSH0 CALLER PUSH20 0xFFFFFFFFFFFFFFFFFFFFFFFFFFFFFFFFFFFFFFFF AND PUSH20 0xFFFFFFFFFFFFFFFFFFFFFFFFFFFFFFFFFFFFFFFF AND DUP2 MSTORE PUSH1 0x20 ADD SWAP1 DUP2 MSTORE PUSH1 0x20 ADD PUSH0 KECCAK256 PUSH0 SWAP1 SLOAD SWAP1 PUSH2 0x100 EXP SWAP1 DIV PUSH1 0xFF AND SWAP1 POP SWAP1 JUMP JUMPDEST PUSH1 0x6 DUP1 SLOAD SWAP1 POP DUP2 LT PUSH2 0x771 JUMPI PUSH1 0x40 MLOAD PUSH32 0x8C379A000000000000000000000000000000000000000000000000000000000 DUP2 MSTORE PUSH1 0x4 ADD PUSH2 0x768 SWAP1 PUSH2 0x18F4 JUMP JUMPDEST PUSH1 0x40 MLOAD DUP1 SWAP2 SUB SWAP1 REVERT JUMPDEST PUSH1 0x6 DUP2 DUP2 SLOAD DUP2 LT PUSH2 0x785 JUMPI PUSH2 0x784 PUSH2 0x187D JUMP JUMPDEST JUMPDEST SWAP1 PUSH0 MSTORE PUSH1 0x20 PUSH0 KECCAK256 SWAP1 PUSH1 0x4 MUL ADD PUSH0 ADD PUSH0 SWAP1 SLOAD SWAP1 PUSH2 0x100 EXP SWAP1 DIV PUSH20 0xFFFFFFFFFFFFFFFFFFFFFFFFFFFFFFFFFFFFFFFF AND PUSH20 0xFFFFFFFFFFFFFFFFFFFFFFFFFFFFFFFFFFFFFFFF AND CALLER PUSH20 0xFFFFFFFFFFFFFFFFFFFFFFFFFFFFFFFFFFFFFFFF AND EQ PUSH2 0x820 JUMPI PUSH1 0x40 MLOAD PUSH32 0x8C379A000000000000000000000000000000000000000000000000000000000 DUP2 MSTORE PUSH1 0x4 ADD PUSH2 0x817 SWAP1 PUSH2 0x195C JUMP JUMPDEST PUSH1 0x40 MLOAD DUP1 SWAP2 SUB SWAP1 REVERT JUMPDEST PUSH1 0x6 DUP2 DUP2 SLOAD DUP2 LT PUSH2 0x834 JUMPI PUSH2 0x833 PUSH2 0x187D JUMP JUMPDEST JUMPDEST SWAP1 PUSH0 MSTORE PUSH1 0x20 PUSH0 KECCAK256 SWAP1 PUSH1 0x4 MUL ADD PUSH1 0x3 ADD PUSH0 SWAP1 SLOAD SWAP1 PUSH2 0x100 EXP SWAP1 DIV PUSH1 0xFF AND ISZERO PUSH2 0x890 JUMPI PUSH1 0x40 MLOAD PUSH32 0x8C379A000000000000000000000000000000000000000000000000000000000 DUP2 MSTORE PUSH1 0x4 ADD PUSH2 0x887 SWAP1 PUSH2 0x19C4 JUMP JUMPDEST PUSH1 0x40 MLOAD DUP1 SWAP2 SUB SWAP1 REVERT JUMPDEST PUSH0 PUSH1 0x6 DUP3 DUP2 SLOAD DUP2 LT PUSH2 0x8A5 JUMPI PUSH2 0x8A4 PUSH2 0x187D JUMP JUMPDEST JUMPDEST SWAP1 PUSH0 MSTORE PUSH1 0x20 PUSH0 KECCAK256 SWAP1 PUSH1 0x4 MUL ADD PUSH1 0x1 ADD SLOAD SWAP1 POP PUSH0 DUP2 GT PUSH2 0x8F9 JUMPI PUSH1 0x40 MLOAD PUSH32 0x8C379A000000000000000000000000000000000000000000000000000000000 DUP2 MSTORE PUSH1 0x4 ADD PUSH2 0x8F0 SWAP1 PUSH2 0x1A2C JUMP JUMPDEST PUSH1 0x40 MLOAD DUP1 SWAP2 SUB SWAP1 REVERT JUMPDEST PUSH1 0x1 PUSH1 0x6 DUP4 DUP2 SLOAD DUP2 LT PUSH2 0x90F JUMPI PUSH2 0x90E PUSH2 0x187D JUMP JUMPDEST JUMPDEST SWAP1 PUSH0 MSTORE PUSH1 0x20 PUSH0 KECCAK256 SWAP1 PUSH1 0x4 MUL ADD PUSH1 0x3 ADD PUSH0 PUSH2 0x100 EXP DUP2 SLOAD DUP2 PUSH1 0xFF MUL NOT AND SWAP1 DUP4 ISZERO ISZERO MUL OR SWAP1 SSTORE POP CALLER PUSH20 0xFFFFFFFFFFFFFFFFFFFFFFFFFFFFFFFFFFFFFFFF AND PUSH2 0x8FC DUP3 SWAP1 DUP2 ISZERO MUL SWAP1 PUSH1 0x40 MLOAD PUSH0 PUSH1 0x40 MLOAD DUP1 DUP4 SUB DUP2 DUP6 DUP9 DUP9 CALL SWAP4 POP POP POP POP ISZERO DUP1 ISZERO PUSH2 0x977 JUMPI RETURNDATASIZE PUSH0 DUP1 RETURNDATACOPY RETURNDATASIZE PUSH0 REVERT JUMPDEST POP CALLER PUSH20 0xFFFFFFFFFFFFFFFFFFFFFFFFFFFFFFFFFFFFFFFF AND PUSH32 0x95681E512BC0FE659E195E06C283EADA494316F3D801213E48E7101AF92BF770 DUP3 PUSH1 0x40 MLOAD PUSH2 0x9BE SWAP2 SWAP1 PUSH2 0x157C JUMP JUMPDEST PUSH1 0x40 MLOAD DUP1 SWAP2 SUB SWAP1 LOG2 POP POP JUMP JUMPDEST PUSH1 0x5 SLOAD DUP2 JUMP JUMPDEST PUSH1 0x1 PUSH1 0x14 SWAP1 SLOAD SWAP1 PUSH2 0x100 EXP SWAP1 DIV PUSH1 0xFF AND PUSH2 0xA1F JUMPI PUSH1 0x40 MLOAD PUSH32 0x8C379A000000000000000000000000000000000000000000000000000000000 DUP2 MSTORE PUSH1 0x4 ADD PUSH2 0xA16 SWAP1 PUSH2 0x1A94 JUMP JUMPDEST PUSH1 0x40 MLOAD DUP1 SWAP2 SUB SWAP1 REVERT JUMPDEST PUSH1 0x1 PUSH0 SWAP1 SLOAD SWAP1 PUSH2 0x100 EXP SWAP1 DIV PUSH20 0xFFFFFFFFFFFFFFFFFFFFFFFFFFFFFFFFFFFFFFFF AND PUSH20 0xFFFFFFFFFFFFFFFFFFFFFFFFFFFFFFFFFFFFFFFF AND CALLER PUSH20 0xFFFFFFFFFFFFFFFFFFFFFFFFFFFFFFFFFFFFFFFF AND EQ PUSH2 0xAAE JUMPI PUSH1 0x40 MLOAD PUSH32 0x8C379A000000000000000000000000000000000000000000000000000000000 DUP2 MSTORE PUSH1 0x4 ADD PUSH2 0xAA5 SWAP1 PUSH2 0x1AFC JUMP JUMPDEST PUSH1 0x40 MLOAD DUP1 SWAP2 SUB SWAP1 REVERT JUMPDEST PUSH0 SELFBALANCE SWAP1 POP PUSH0 DUP2 GT PUSH2 0xAF4 JUMPI PUSH1 0x40 MLOAD PUSH32 0x8C379A000000000000000000000000000000000000000000000000000000000 DUP2 MSTORE PUSH1 0x4 ADD PUSH2 0xAEB SWAP1 PUSH2 0x1A2C JUMP JUMPDEST PUSH1 0x40 MLOAD DUP1 SWAP2 SUB SWAP1 REVERT JUMPDEST PUSH1 0x1 PUSH0 SWAP1 SLOAD SWAP1 PUSH2 0x100 EXP SWAP1 DIV PUSH20 0xFFFFFFFFFFFFFFFFFFFFFFFFFFFFFFFFFFFFFFFF AND PUSH20 0xFFFFFFFFFFFFFFFFFFFFFFFFFFFFFFFFFFFFFFFF AND PUSH2 0x8FC DUP3 SWAP1 DUP2 ISZERO MUL SWAP1 PUSH1 0x40 MLOAD PUSH0 PUSH1 0x40 MLOAD DUP1 DUP4 SUB DUP2 DUP6 DUP9 DUP9 CALL SWAP4 POP POP POP POP ISZERO DUP1 ISZERO PUSH2 0xB58 JUMPI RETURNDATASIZE PUSH0 DUP1 RETURNDATACOPY RETURNDATASIZE PUSH0 REVERT JUMPDEST POP PUSH0 PUSH1 0x6 DUP1 SLOAD SWAP1 POP GT ISZERO PUSH2 0xBB3 JUMPI PUSH1 0x1 PUSH1 0x6 PUSH1 0x1 PUSH1 0x6 DUP1 SLOAD SWAP1 POP PUSH2 0xB7C SWAP2 SWAP1 PUSH2 0x1B47 JUMP JUMPDEST DUP2 SLOAD DUP2 LT PUSH2 0xB8D JUMPI PUSH2 0xB8C PUSH2 0x187D JUMP JUMPDEST JUMPDEST SWAP1 PUSH0 MSTORE PUSH1 0x20 PUSH0 KECCAK256 SWAP1 PUSH1 0x4 MUL ADD PUSH1 0x3 ADD PUSH0 PUSH2 0x100 EXP DUP2 SLOAD DUP2 PUSH1 0xFF MUL NOT AND SWAP1 DUP4 ISZERO ISZERO MUL OR SWAP1 SSTORE POP JUMPDEST PUSH1 0x1 PUSH0 SWAP1 SLOAD SWAP1 PUSH2 0x100 EXP SWAP1 DIV PUSH20 0xFFFFFFFFFFFFFFFFFFFFFFFFFFFFFFFFFFFFFFFF AND PUSH20 0xFFFFFFFFFFFFFFFFFFFFFFFFFFFFFFFFFFFFFFFF AND PUSH32 0x95681E512BC0FE659E195E06C283EADA494316F3D801213E48E7101AF92BF770 DUP3 PUSH1 0x40 MLOAD PUSH2 0xC1A SWAP2 SWAP1 PUSH2 0x157C JUMP JUMPDEST PUSH1 0x40 MLOAD DUP1 SWAP2 SUB SWAP1 LOG2 POP JUMP JUMPDEST PUSH0 PUSH1 0x3 DUP1 SLOAD SWAP1 POP SWAP1 POP SWAP1 JUMP JUMPDEST PUSH1 0x1 PUSH1 0x14 SWAP1 SLOAD SWAP1 PUSH2 0x100 EXP SWAP1 DIV PUSH1 0xFF AND ISZERO PUSH2 0xC81 JUMPI PUSH1 0x40 MLOAD PUSH32 0x8C379A000000000000000000000000000000000000000000000000000000000 DUP2 MSTORE PUSH1 0x4 ADD PUSH2 0xC78 SWAP1 PUSH2 0x17F7 JUMP JUMPDEST PUSH1 0x40 MLOAD DUP1 SWAP2 SUB SWAP1 REVERT JUMPDEST PUSH0 PUSH1 0x3 DUP1 SLOAD SWAP1 POP GT PUSH2 0xCC8 JUMPI PUSH1 0x40 MLOAD PUSH32 0x8C379A000000000000000000000000000000000000000000000000000000000 DUP2 MSTORE PUSH1 0x4 ADD PUSH2 0xCBF SWAP1 PUSH2 0x1BC4 JUMP JUMPDEST PUSH1 0x40 MLOAD DUP1 SWAP2 SUB SWAP1 REVERT JUMPDEST PUSH1 0x4 PUSH0 SWAP1 SLOAD SWAP1 PUSH2 0x100 EXP SWAP1 DIV PUSH20 0xFFFFFFFFFFFFFFFFFFFFFFFFFFFFFFFFFFFFFFFF AND PUSH20 0xFFFFFFFFFFFFFFFFFFFFFFFFFFFFFFFFFFFFFFFF AND CALLER PUSH20 0xFFFFFFFFFFFFFFFFFFFFFFFFFFFFFFFFFFFFFFFF AND EQ DUP1 PUSH2 0xD32 JUMPI POP PUSH2 0x258 PUSH1 0x5 SLOAD PUSH2 0xD2E SWAP2 SWAP1 PUSH2 0x1BE2 JUMP JUMPDEST TIMESTAMP LT ISZERO JUMPDEST PUSH2 0xD71 JUMPI PUSH1 0x40 MLOAD PUSH32 0x8C379A000000000000000000000000000000000000000000000000000000000 DUP2 MSTORE PUSH1 0x4 ADD PUSH2 0xD68 SWAP1 PUSH2 0x1C85 JUMP JUMPDEST PUSH1 0x40 MLOAD DUP1 SWAP2 SUB SWAP1 REVERT JUMPDEST PUSH0 PUSH1 0x3 DUP1 SLOAD SWAP1 POP TIMESTAMP PREVRANDAO PUSH1 0x3 DUP1 SLOAD SWAP1 POP PUSH1 0x40 MLOAD PUSH1 0x20 ADD PUSH2 0xD92 SWAP4 SWAP3 SWAP2 SWAP1 PUSH2 0x1CC3 JUMP JUMPDEST PUSH1 0x40 MLOAD PUSH1 0x20 DUP2 DUP4 SUB SUB DUP2 MSTORE SWAP1 PUSH1 0x40 MSTORE DUP1 MLOAD SWAP1 PUSH1 0x20 ADD KECCAK256 PUSH0 SHR PUSH2 0xDB4 SWAP2 SWAP1 PUSH2 0x1D2C JUMP JUMPDEST SWAP1 POP PUSH1 0x3 DUP2 DUP2 SLOAD DUP2 LT PUSH2 0xDCA JUMPI PUSH2 0xDC9 PUSH2 0x187D JUMP JUMPDEST JUMPDEST SWAP1 PUSH0 MSTORE PUSH1 0x20 PUSH0 KECCAK256 ADD PUSH0 SWAP1 SLOAD SWAP1 PUSH2 0x100 EXP SWAP1 DIV PUSH20 0xFFFFFFFFFFFFFFFFFFFFFFFFFFFFFFFFFFFFFFFF AND PUSH1 0x1 PUSH0 PUSH2 0x100 EXP DUP2 SLOAD DUP2 PUSH20 0xFFFFFFFFFFFFFFFFFFFFFFFFFFFFFFFFFFFFFFFF MUL NOT AND SWAP1 DUP4 PUSH20 0xFFFFFFFFFFFFFFFFFFFFFFFFFFFFFFFFFFFFFFFF AND MUL OR SWAP1 SSTORE POP PUSH1 0x1 DUP1 PUSH1 0x14 PUSH2 0x100 EXP DUP2 SLOAD DUP2 PUSH1 0xFF MUL NOT AND SWAP1 DUP4 ISZERO ISZERO MUL OR SWAP1 SSTORE POP TIMESTAMP PUSH1 0x5 DUP2 SWAP1 SSTORE POP PUSH1 0x6 PUSH1 0x40 MLOAD DUP1 PUSH1 0x80 ADD PUSH1 0x40 MSTORE DUP1 PUSH1 0x1 PUSH0 SWAP1 SLOAD SWAP1 PUSH2 0x100 EXP SWAP1 DIV PUSH20 0xFFFFFFFFFFFFFFFFFFFFFFFFFFFFFFFFFFFFFFFF AND PUSH20 0xFFFFFFFFFFFFFFFFFFFFFFFFFFFFFFFFFFFFFFFF AND DUP2 MSTORE PUSH1 0x20 ADD SELFBALANCE DUP2 MSTORE PUSH1 0x20 ADD TIMESTAMP DUP2 MSTORE PUSH1 0x20 ADD PUSH0 ISZERO ISZERO DUP2 MSTORE POP SWAP1 DUP1 PUSH1 0x1 DUP2 SLOAD ADD DUP1 DUP3 SSTORE DUP1 SWAP2 POP POP PUSH1 0x1 SWAP1 SUB SWAP1 PUSH0 MSTORE PUSH1 0x20 PUSH0 KECCAK256 SWAP1 PUSH1 0x4 MUL ADD PUSH0 SWAP1 SWAP2 SWAP1 SWAP2 SWAP1 SWAP2 POP PUSH0 DUP3 ADD MLOAD DUP2 PUSH0 ADD PUSH0 PUSH2 0x100 EXP DUP2 SLOAD DUP2 PUSH20 0xFFFFFFFFFFFFFFFFFFFFFFFFFFFFFFFFFFFFFFFF MUL NOT AND SWAP1 DUP4 PUSH20 0xFFFFFFFFFFFFFFFFFFFFFFFFFFFFFFFFFFFFFFFF AND MUL OR SWAP1 SSTORE POP PUSH1 0x20 DUP3 ADD MLOAD DUP2 PUSH1 0x1 ADD SSTORE PUSH1 0x40 DUP3 ADD MLOAD DUP2 PUSH1 0x2 ADD SSTORE PUSH1 0x60 DUP3 ADD MLOAD DUP2 PUSH1 0x3 ADD PUSH0 PUSH2 0x100 EXP DUP2 SLOAD DUP2 PUSH1 0xFF MUL NOT AND SWAP1 DUP4 ISZERO ISZERO MUL OR SWAP1 SSTORE POP POP POP PUSH0 DUP1 PUSH0 PUSH1 0x1 PUSH0 SWAP1 SLOAD SWAP1 PUSH2 0x100 EXP SWAP1 DIV PUSH20 0xFFFFFFFFFFFFFFFFFFFFFFFFFFFFFFFFFFFFFFFF AND PUSH20 0xFFFFFFFFFFFFFFFFFFFFFFFFFFFFFFFFFFFFFFFF AND PUSH20 0xFFFFFFFFFFFFFFFFFFFFFFFFFFFFFFFFFFFFFFFF AND DUP2 MSTORE PUSH1 0x20 ADD SWAP1 DUP2 MSTORE PUSH1 0x20 ADD PUSH0 KECCAK256 PUSH0 SWAP1 SLOAD SWAP1 PUSH2 0x100 EXP SWAP1 DIV PUSH1 0xFF AND SWAP1 POP PUSH1 0x1 PUSH0 SWAP1 SLOAD SWAP1 PUSH2 0x100 EXP SWAP1 DIV PUSH20 0xFFFFFFFFFFFFFFFFFFFFFFFFFFFFFFFFFFFFFFFF AND PUSH20 0xFFFFFFFFFFFFFFFFFFFFFFFFFFFFFFFFFFFFFFFF AND PUSH32 0x97F81796ACDE1F8350124EADBA95449DAEF1CFDBC53C651CAA49B7B1673A0CF DUP3 PUSH1 0x40 MLOAD PUSH2 0x1021 SWAP2 SWAP1 PUSH2 0x1684 JUMP JUMPDEST PUSH1 0x40 MLOAD DUP1 SWAP2 SUB SWAP1 LOG2 POP POP JUMP JUMPDEST PUSH1 0x1 PUSH1 0x14 SWAP1 SLOAD SWAP1 PUSH2 0x100 EXP SWAP1 DIV PUSH1 0xFF AND PUSH2 0x107C JUMPI PUSH1 0x40 MLOAD PUSH32 0x8C379A000000000000000000000000000000000000000000000000000000000 DUP2 MSTORE PUSH1 0x4 ADD PUSH2 0x1073 SWAP1 PUSH2 0x1A94 JUMP JUMPDEST PUSH1 0x40 MLOAD DUP1 SWAP2 SUB SWAP1 REVERT JUMPDEST PUSH0 PUSH1 0x1 PUSH1 0x14 PUSH2 0x100 EXP DUP2 SLOAD DUP2 PUSH1 0xFF MUL NOT AND SWAP1 DUP4 ISZERO ISZERO MUL OR SWAP1 SSTORE POP PUSH0 PUSH1 0x1 PUSH0 PUSH2 0x100 EXP DUP2 SLOAD DUP2 PUSH20 0xFFFFFFFFFFFFFFFFFFFFFFFFFFFFFFFFFFFFFFFF MUL NOT AND SWAP1 DUP4 PUSH20 0xFFFFFFFFFFFFFFFFFFFFFFFFFFFFFFFFFFFFFFFF AND MUL OR SWAP1 SSTORE POP TIMESTAMP PUSH1 0x5 DUP2 SWAP1 SSTORE POP PUSH1 0x3 PUSH0 PUSH2 0x10EA SWAP2 SWAP1 PUSH2 0x14C6 JUMP JUMPDEST CALLER PUSH20 0xFFFFFFFFFFFFFFFFFFFFFFFFFFFFFFFFFFFFFFFF AND PUSH32 0x98AB7E823882180C9F7D9ED464E68D4F8FBE0DDE6AC4E6F9EF956DBC424E6192 TIMESTAMP PUSH1 0x40 MLOAD PUSH2 0x1130 SWAP2 SWAP1 PUSH2 0x157C JUMP JUMPDEST PUSH1 0x40 MLOAD DUP1 SWAP2 SUB SWAP1 LOG2 JUMP JUMPDEST PUSH1 0x4 PUSH0 SWAP1 SLOAD SWAP1 PUSH2 0x100 EXP SWAP1 DIV PUSH20 0xFFFFFFFFFFFFFFFFFFFFFFFFFFFFFFFFFFFFFFFF AND PUSH20 0xFFFFFFFFFFFFFFFFFFFFFFFFFFFFFFFFFFFFFFFF AND CALLER PUSH20 0xFFFFFFFFFFFFFFFFFFFFFFFFFFFFFFFFFFFFFFFF AND EQ PUSH2 0x11C9 JUMPI PUSH1 0x40 MLOAD PUSH32 0x8C379A000000000000000000000000000000000000000000000000000000000 DUP2 MSTORE PUSH1 0x4 ADD PUSH2 0x11C0 SWAP1 PUSH2 0x1DA6 JUMP JUMPDEST PUSH1 0x40 MLOAD DUP1 SWAP2 SUB SWAP1 REVERT JUMPDEST PUSH1 0x1 PUSH1 0x14 SWAP1 SLOAD SWAP1 PUSH2 0x100 EXP SWAP1 DIV PUSH1 0xFF AND PUSH2 0x1218 JUMPI PUSH1 0x40 MLOAD PUSH32 0x8C379A000000000000000000000000000000000000000000000000000000000 DUP2 MSTORE PUSH1 0x4 ADD PUSH2 0x120F SWAP1 PUSH2 0x1A94 JUMP JUMPDEST PUSH1 0x40 MLOAD DUP1 SWAP2 SUB SWAP1 REVERT JUMPDEST PUSH0 PUSH1 0x1 PUSH1 0x14 PUSH2 0x100 EXP DUP2 SLOAD DUP2 PUSH1 0xFF MUL NOT AND SWAP1 DUP4 ISZERO ISZERO MUL OR SWAP1 SSTORE POP PUSH0 PUSH1 0x1 PUSH0 PUSH2 0x100 EXP DUP2 SLOAD DUP2 PUSH20 0xFFFFFFFFFFFFFFFFFFFFFFFFFFFFFFFFFFFFFFFF MUL NOT AND SWAP1 DUP4 PUSH20 0xFFFFFFFFFFFFFFFFFFFFFFFFFFFFFFFFFFFFFFFF AND MUL OR SWAP1 SSTORE POP TIMESTAMP PUSH1 0x5 DUP2 SWAP1 SSTORE POP PUSH1 0x3 PUSH0 PUSH2 0x1286 SWAP2 SWAP1 PUSH2 0x14C6 JUMP JUMPDEST CALLER PUSH20 0xFFFFFFFFFFFFFFFFFFFFFFFFFFFFFFFFFFFFFFFF AND PUSH32 0x98AB7E823882180C9F7D9ED464E68D4F8FBE0DDE6AC4E6F9EF956DBC424E6192 TIMESTAMP PUSH1 0x40 MLOAD PUSH2 0x12CC SWAP2 SWAP1 PUSH2 0x157C JUMP JUMPDEST PUSH1 0x40 MLOAD DUP1 SWAP2 SUB SWAP1 LOG2 JUMP JUMPDEST PUSH1 0x1 PUSH0 SWAP1 SLOAD SWAP1 PUSH2 0x100 EXP SWAP1 DIV PUSH20 0xFFFFFFFFFFFFFFFFFFFFFFFFFFFFFFFFFFFFFFFF AND DUP2 JUMP JUMPDEST PUSH1 0x4 PUSH0 SWAP1 SLOAD SWAP1 PUSH2 0x100 EXP SWAP1 DIV PUSH20 0xFFFFFFFFFFFFFFFFFFFFFFFFFFFFFFFFFFFFFFFF AND PUSH20 0xFFFFFFFFFFFFFFFFFFFFFFFFFFFFFFFFFFFFFFFF AND CALLER PUSH20 0xFFFFFFFFFFFFFFFFFFFFFFFFFFFFFFFFFFFFFFFF AND EQ PUSH2 0x138A JUMPI PUSH1 0x40 MLOAD PUSH32 0x8C379A000000000000000000000000000000000000000000000000000000000 DUP2 MSTORE PUSH1 0x4 ADD PUSH2 0x1381 SWAP1 PUSH2 0x1E0E JUMP JUMPDEST PUSH1 0x40 MLOAD DUP1 SWAP2 SUB SWAP1 REVERT JUMPDEST PUSH0 PUSH20 0xFFFFFFFFFFFFFFFFFFFFFFFFFFFFFFFFFFFFFFFF AND DUP2 PUSH20 0xFFFFFFFFFFFFFFFFFFFFFFFFFFFFFFFFFFFFFFFF AND SUB PUSH2 0x13F8 JUMPI PUSH1 0x40 MLOAD PUSH32 0x8C379A000000000000000000000000000000000000000000000000000000000 DUP2 MSTORE PUSH1 0x4 ADD PUSH2 0x13EF SWAP1 PUSH2 0x1E76 JUMP JUMPDEST PUSH1 0x40 MLOAD DUP1 SWAP2 SUB SWAP1 REVERT JUMPDEST DUP1 PUSH1 0x4 PUSH0 PUSH2 0x100 EXP DUP2 SLOAD DUP2 PUSH20 0xFFFFFFFFFFFFFFFFFFFFFFFFFFFFFFFFFFFFFFFF MUL NOT AND SWAP1 DUP4 PUSH20 0xFFFFFFFFFFFFFFFFFFFFFFFFFFFFFFFFFFFFFFFF AND MUL OR SWAP1 SSTORE POP POP JUMP JUMPDEST PUSH1 0x4 PUSH0 SWAP1 SLOAD SWAP1 PUSH2 0x100 EXP SWAP1 DIV PUSH20 0xFFFFFFFFFFFFFFFFFFFFFFFFFFFFFFFFFFFFFFFF AND DUP2 JUMP JUMPDEST PUSH1 0x6 DUP2 DUP2 SLOAD DUP2 LT PUSH2 0x146F JUMPI PUSH0 DUP1 REVERT JUMPDEST SWAP1 PUSH0 MSTORE PUSH1 0x20 PUSH0 KECCAK256 SWAP1 PUSH1 0x4 MUL ADD PUSH0 SWAP2 POP SWAP1 POP DUP1 PUSH0 ADD PUSH0 SWAP1 SLOAD SWAP1 PUSH2 0x100 EXP SWAP1 DIV PUSH20 0xFFFFFFFFFFFFFFFFFFFFFFFFFFFFFFFFFFFFFFFF AND SWAP1 DUP1 PUSH1 0x1 ADD SLOAD SWAP1 DUP1 PUSH1 0x2 ADD SLOAD SWAP1 DUP1 PUSH1 0x3 ADD PUSH0 SWAP1 SLOAD SWAP1 PUSH2 0x100 EXP SWAP1 DIV PUSH1 0xFF AND SWAP1 POP DUP5 JUMP JUMPDEST POP DUP1 SLOAD PUSH0 DUP3 SSTORE SWAP1 PUSH0 MSTORE PUSH1 0x20 PUSH0 KECCAK256 SWAP1 DUP2 ADD SWAP1 PUSH2 0x14E1 SWAP2 SWAP1 PUSH2 0x14E4 JUMP JUMPDEST POP JUMP JUMPDEST JUMPDEST DUP1 DUP3 GT ISZERO PUSH2 0x14FB JUMPI PUSH0 DUP2 PUSH0 SWAP1 SSTORE POP PUSH1 0x1 ADD PUSH2 0x14E5 JUMP JUMPDEST POP SWAP1 JUMP JUMPDEST PUSH0 DUP1 REVERT JUMPDEST PUSH0 PUSH1 0xFF DUP3 AND SWAP1 POP SWAP2 SWAP1 POP JUMP JUMPDEST PUSH2 0x1518 DUP2 PUSH2 0x1503 JUMP JUMPDEST DUP2 EQ PUSH2 0x1522 JUMPI PUSH0 DUP1 REVERT JUMPDEST POP JUMP JUMPDEST PUSH0 DUP2 CALLDATALOAD SWAP1 POP PUSH2 0x1533 DUP2 PUSH2 0x150F JUMP JUMPDEST SWAP3 SWAP2 POP POP JUMP JUMPDEST PUSH0 PUSH1 0x20 DUP3 DUP5 SUB SLT ISZERO PUSH2 0x154E JUMPI PUSH2 0x154D PUSH2 0x14FF JUMP JUMPDEST JUMPDEST PUSH0 PUSH2 0x155B DUP5 DUP3 DUP6 ADD PUSH2 0x1525 JUMP JUMPDEST SWAP2 POP POP SWAP3 SWAP2 POP POP JUMP JUMPDEST PUSH0 DUP2 SWAP1 POP SWAP2 SWAP1 POP JUMP JUMPDEST PUSH2 0x1576 DUP2 PUSH2 0x1564 JUMP JUMPDEST DUP3 MSTORE POP POP JUMP JUMPDEST PUSH0 PUSH1 0x20 DUP3 ADD SWAP1 POP PUSH2 0x158F PUSH0 DUP4 ADD DUP5 PUSH2 0x156D JUMP JUMPDEST SWAP3 SWAP2 POP POP JUMP JUMPDEST PUSH2 0x159E DUP2 PUSH2 0x1564 JUMP JUMPDEST DUP2 EQ PUSH2 0x15A8 JUMPI PUSH0 DUP1 REVERT JUMPDEST POP JUMP JUMPDEST PUSH0 DUP2 CALLDATALOAD SWAP1 POP PUSH2 0x15B9 DUP2 PUSH2 0x1595 JUMP JUMPDEST SWAP3 SWAP2 POP POP JUMP JUMPDEST PUSH0 PUSH1 0x20 DUP3 DUP5 SUB SLT ISZERO PUSH2 0x15D4 JUMPI PUSH2 0x15D3 PUSH2 0x14FF JUMP JUMPDEST JUMPDEST PUSH0 PUSH2 0x15E1 DUP5 DUP3 DUP6 ADD PUSH2 0x15AB JUMP JUMPDEST SWAP2 POP POP SWAP3 SWAP2 POP POP JUMP JUMPDEST PUSH0 PUSH20 0xFFFFFFFFFFFFFFFFFFFFFFFFFFFFFFFFFFFFFFFF DUP3 AND SWAP1 POP SWAP2 SWAP1 POP JUMP JUMPDEST PUSH0 PUSH2 0x1613 DUP3 PUSH2 0x15EA JUMP JUMPDEST SWAP1 POP SWAP2 SWAP1 POP JUMP JUMPDEST PUSH2 0x1623 DUP2 PUSH2 0x1609 JUMP JUMPDEST DUP3 MSTORE POP POP JUMP JUMPDEST PUSH0 PUSH1 0x20 DUP3 ADD SWAP1 POP PUSH2 0x163C PUSH0 DUP4 ADD DUP5 PUSH2 0x161A JUMP JUMPDEST SWAP3 SWAP2 POP POP JUMP JUMPDEST PUSH0 DUP2 ISZERO ISZERO SWAP1 POP SWAP2 SWAP1 POP JUMP JUMPDEST PUSH2 0x1656 DUP2 PUSH2 0x1642 JUMP JUMPDEST DUP3 MSTORE POP POP JUMP JUMPDEST PUSH0 PUSH1 0x20 DUP3 ADD SWAP1 POP PUSH2 0x166F PUSH0 DUP4 ADD DUP5 PUSH2 0x164D JUMP JUMPDEST SWAP3 SWAP2 POP POP JUMP JUMPDEST PUSH2 0x167E DUP2 PUSH2 0x1503 JUMP JUMPDEST DUP3 MSTORE POP POP JUMP JUMPDEST PUSH0 PUSH1 0x20 DUP3 ADD SWAP1 POP PUSH2 0x1697 PUSH0 DUP4 ADD DUP5 PUSH2 0x1675 JUMP JUMPDEST SWAP3 SWAP2 POP POP JUMP JUMPDEST PUSH2 0x16A6 DUP2 PUSH2 0x1609 JUMP JUMPDEST DUP2 EQ PUSH2 0x16B0 JUMPI PUSH0 DUP1 REVERT JUMPDEST POP JUMP JUMPDEST PUSH0 DUP2 CALLDATALOAD SWAP1 POP PUSH2 0x16C1 DUP2 PUSH2 0x169D JUMP JUMPDEST SWAP3 SWAP2 POP POP JUMP JUMPDEST PUSH0 PUSH1 0x20 DUP3 DUP5 SUB SLT ISZERO PUSH2 0x16DC JUMPI PUSH2 0x16DB PUSH2 0x14FF JUMP JUMPDEST JUMPDEST PUSH0 PUSH2 0x16E9 DUP5 DUP3 DUP6 ADD PUSH2 0x16B3 JUMP JUMPDEST SWAP2 POP POP SWAP3 SWAP2 POP POP JUMP JUMPDEST PUSH0 PUSH1 0x80 DUP3 ADD SWAP1 POP PUSH2 0x1705 PUSH0 DUP4 ADD DUP8 PUSH2 0x161A JUMP JUMPDEST PUSH2 0x1712 PUSH1 0x20 DUP4 ADD DUP7 PUSH2 0x156D JUMP JUMPDEST PUSH2 0x171F PUSH1 0x40 DUP4 ADD DUP6 PUSH2 0x156D JUMP JUMPDEST PUSH2 0x172C PUSH1 0x60 DUP4 ADD DUP5 PUSH2 0x164D JUMP JUMPDEST SWAP6 SWAP5 POP POP POP POP POP JUMP JUMPDEST PUSH0 DUP3 DUP3 MSTORE PUSH1 0x20 DUP3 ADD SWAP1 POP SWAP3 SWAP2 POP POP JUMP JUMPDEST PUSH32 0x496E636F7272656374207469636B657420707269636500000000000000000000 PUSH0 DUP3 ADD MSTORE POP JUMP JUMPDEST PUSH0 PUSH2 0x1779 PUSH1 0x16 DUP4 PUSH2 0x1735 JUMP JUMPDEST SWAP2 POP PUSH2 0x1784 DUP3 PUSH2 0x1745 JUMP JUMPDEST PUSH1 0x20 DUP3 ADD SWAP1 POP SWAP2 SWAP1 POP JUMP JUMPDEST PUSH0 PUSH1 0x20 DUP3 ADD SWAP1 POP DUP2 DUP2 SUB PUSH0 DUP4 ADD MSTORE PUSH2 0x17A6 DUP2 PUSH2 0x176D JUMP JUMPDEST SWAP1 POP SWAP2 SWAP1 POP JUMP JUMPDEST PUSH32 0x4C6F747465727920616C726561647920647261776E0000000000000000000000 PUSH0 DUP3 ADD MSTORE POP JUMP JUMPDEST PUSH0 PUSH2 0x17E1 PUSH1 0x15 DUP4 PUSH2 0x1735 JUMP JUMPDEST SWAP2 POP PUSH2 0x17EC DUP3 PUSH2 0x17AD JUMP JUMPDEST PUSH1 0x20 DUP3 ADD SWAP1 POP SWAP2 SWAP1 POP JUMP JUMPDEST PUSH0 PUSH1 0x20 DUP3 ADD SWAP1 POP DUP2 DUP2 SUB PUSH0 DUP4 ADD MSTORE PUSH2 0x180E DUP2 PUSH2 0x17D5 JUMP JUMPDEST SWAP1 POP SWAP2 SWAP1 POP JUMP JUMPDEST PUSH32 0x5469636B6574206D757374206265206265747765656E20312D31303000000000 PUSH0 DUP3 ADD MSTORE POP JUMP JUMPDEST PUSH0 PUSH2 0x1849 PUSH1 0x1C DUP4 PUSH2 0x1735 JUMP JUMPDEST SWAP2 POP PUSH2 0x1854 DUP3 PUSH2 0x1815 JUMP JUMPDEST PUSH1 0x20 DUP3 ADD SWAP1 POP SWAP2 SWAP1 POP JUMP JUMPDEST PUSH0 PUSH1 0x20 DUP3 ADD SWAP1 POP DUP2 DUP2 SUB PUSH0 DUP4 ADD MSTORE PUSH2 0x1876 DUP2 PUSH2 0x183D JUMP JUMPDEST SWAP1 POP SWAP2 SWAP1 POP JUMP JUMPDEST PUSH32 0x4E487B7100000000000000000000000000000000000000000000000000000000 PUSH0 MSTORE PUSH1 0x32 PUSH1 0x4 MSTORE PUSH1 0x24 PUSH0 REVERT JUMPDEST PUSH32 0x496E76616C696420726F756E6420696E64657800000000000000000000000000 PUSH0 DUP3 ADD MSTORE POP JUMP JUMPDEST PUSH0 PUSH2 0x18DE PUSH1 0x13 DUP4 PUSH2 0x1735 JUMP JUMPDEST SWAP2 POP PUSH2 0x18E9 DUP3 PUSH2 0x18AA JUMP JUMPDEST PUSH1 0x20 DUP3 ADD SWAP1 POP SWAP2 SWAP1 POP JUMP JUMPDEST PUSH0 PUSH1 0x20 DUP3 ADD SWAP1 POP DUP2 DUP2 SUB PUSH0 DUP4 ADD MSTORE PUSH2 0x190B DUP2 PUSH2 0x18D2 JUMP JUMPDEST SWAP1 POP SWAP2 SWAP1 POP JUMP JUMPDEST PUSH32 0x4E6F74207468652077696E6E6572206F66207468697320726F756E6400000000 PUSH0 DUP3 ADD MSTORE POP JUMP JUMPDEST PUSH0 PUSH2 0x1946 PUSH1 0x1C DUP4 PUSH2 0x1735 JUMP JUMPDEST SWAP2 POP PUSH2 0x1951 DUP3 PUSH2 0x1912 JUMP JUMPDEST PUSH1 0x20 DUP3 ADD SWAP1 POP SWAP2 SWAP1 POP JUMP JUMPDEST PUSH0 PUSH1 0x20 DUP3 ADD SWAP1 POP DUP2 DUP2 SUB PUSH0 DUP4 ADD MSTORE PUSH2 0x1973 DUP2 PUSH2 0x193A JUMP JUMPDEST SWAP1 POP SWAP2 SWAP1 POP JUMP JUMPDEST PUSH32 0x5072697A6520616C726561647920636C61696D65640000000000000000000000 PUSH0 DUP3 ADD MSTORE POP JUMP JUMPDEST PUSH0 PUSH2 0x19AE PUSH1 0x15 DUP4 PUSH2 0x1735 JUMP JUMPDEST SWAP2 POP PUSH2 0x19B9 DUP3 PUSH2 0x197A JUMP JUMPDEST PUSH1 0x20 DUP3 ADD SWAP1 POP SWAP2 SWAP1 POP JUMP JUMPDEST PUSH0 PUSH1 0x20 DUP3 ADD SWAP1 POP DUP2 DUP2 SUB PUSH0 DUP4 ADD MSTORE PUSH2 0x19DB DUP2 PUSH2 0x19A2 JUMP JUMPDEST SWAP1 POP SWAP2 SWAP1 POP JUMP JUMPDEST PUSH32 0x4E6F207072697A6520746F20636C61696D000000000000000000000000000000 PUSH0 DUP3 ADD MSTORE POP JUMP JUMPDEST PUSH0 PUSH2 0x1A16 PUSH1 0x11 DUP4 PUSH2 0x1735 JUMP JUMPDEST SWAP2 POP PUSH2 0x1A21 DUP3 PUSH2 0x19E2 JUMP JUMPDEST PUSH1 0x20 DUP3 ADD SWAP1 POP SWAP2 SWAP1 POP JUMP JUMPDEST PUSH0 PUSH1 0x20 DUP3 ADD SWAP1 POP DUP2 DUP2 SUB PUSH0 DUP4 ADD MSTORE PUSH2 0x1A43 DUP2 PUSH2 0x1A0A JUMP JUMPDEST SWAP1 POP SWAP2 SWAP1 POP JUMP JUMPDEST PUSH32 0x4C6F7474657279206E6F7420647261776E207965740000000000000000000000 PUSH0 DUP3 ADD MSTORE POP JUMP JUMPDEST PUSH0 PUSH2 0x1A7E PUSH1 0x15 DUP4 PUSH2 0x1735 JUMP JUMPDEST SWAP2 POP PUSH2 0x1A89 DUP3 PUSH2 0x1A4A JUMP JUMPDEST PUSH1 0x20 DUP3 ADD SWAP1 POP SWAP2 SWAP1 POP JUMP JUMPDEST PUSH0 PUSH1 0x20 DUP3 ADD SWAP1 POP DUP2 DUP2 SUB PUSH0 DUP4 ADD MSTORE PUSH2 0x1AAB DUP2 PUSH2 0x1A72 JUMP JUMPDEST SWAP1 POP SWAP2 SWAP1 POP JUMP JUMPDEST PUSH32 0x4E6F74207468652077696E6E6572000000000000000000000000000000000000 PUSH0 DUP3 ADD MSTORE POP JUMP JUMPDEST PUSH0 PUSH2 0x1AE6 PUSH1 0xE DUP4 PUSH2 0x1735 JUMP JUMPDEST SWAP2 POP PUSH2 0x1AF1 DUP3 PUSH2 0x1AB2 JUMP JUMPDEST PUSH1 0x20 DUP3 ADD SWAP1 POP SWAP2 SWAP1 POP JUMP JUMPDEST PUSH0 PUSH1 0x20 DUP3 ADD SWAP1 POP DUP2 DUP2 SUB PUSH0 DUP4 ADD MSTORE PUSH2 0x1B13 DUP2 PUSH2 0x1ADA JUMP JUMPDEST SWAP1 POP SWAP2 SWAP1 POP JUMP JUMPDEST PUSH32 0x4E487B7100000000000000000000000000000000000000000000000000000000 PUSH0 MSTORE PUSH1 0x11 PUSH1 0x4 MSTORE PUSH1 0x24 PUSH0 REVERT JUMPDEST PUSH0 PUSH2 0x1B51 DUP3 PUSH2 0x1564 JUMP JUMPDEST SWAP2 POP PUSH2 0x1B5C DUP4 PUSH2 0x1564 JUMP JUMPDEST SWAP3 POP DUP3 DUP3 SUB SWAP1 POP DUP2 DUP2 GT ISZERO PUSH2 0x1B74 JUMPI PUSH2 0x1B73 PUSH2 0x1B1A JUMP JUMPDEST JUMPDEST SWAP3 SWAP2 POP POP JUMP JUMPDEST PUSH32 0x4E6F207061727469636970616E74730000000000000000000000000000000000 PUSH0 DUP3 ADD MSTORE POP JUMP JUMPDEST PUSH0 PUSH2 0x1BAE PUSH1 0xF DUP4 PUSH2 0x1735 JUMP JUMPDEST SWAP2 POP PUSH2 0x1BB9 DUP3 PUSH2 0x1B7A JUMP JUMPDEST PUSH1 0x20 DUP3 ADD SWAP1 POP SWAP2 SWAP1 POP JUMP JUMPDEST PUSH0 PUSH1 0x20 DUP3 ADD SWAP1 POP DUP2 DUP2 SUB PUSH0 DUP4 ADD MSTORE PUSH2 0x1BDB DUP2 PUSH2 0x1BA2 JUMP JUMPDEST SWAP1 POP SWAP2 SWAP1 POP JUMP JUMPDEST PUSH0 PUSH2 0x1BEC DUP3 PUSH2 0x1564 JUMP JUMPDEST SWAP2 POP PUSH2 0x1BF7 DUP4 PUSH2 0x1564 JUMP JUMPDEST SWAP3 POP DUP3 DUP3 ADD SWAP1 POP DUP1 DUP3 GT ISZERO PUSH2 0x1C0F JUMPI PUSH2 0x1C0E PUSH2 0x1B1A JUMP JUMPDEST JUMPDEST SWAP3 SWAP2 POP POP JUMP JUMPDEST PUSH32 0x44726177206E6F7420617661696C61626C6520796574206F72206E6F74206164 PUSH0 DUP3 ADD MSTORE PUSH32 0x6D696E0000000000000000000000000000000000000000000000000000000000 PUSH1 0x20 DUP3 ADD MSTORE POP JUMP JUMPDEST PUSH0 PUSH2 0x1C6F PUSH1 0x23 DUP4 PUSH2 0x1735 JUMP JUMPDEST SWAP2 POP PUSH2 0x1C7A DUP3 PUSH2 0x1C15 JUMP JUMPDEST PUSH1 0x40 DUP3 ADD SWAP1 POP SWAP2 SWAP1 POP JUMP JUMPDEST PUSH0 PUSH1 0x20 DUP3 ADD SWAP1 POP DUP2 DUP2 SUB PUSH0 DUP4 ADD MSTORE PUSH2 0x1C9C DUP2 PUSH2 0x1C63 JUMP JUMPDEST SWAP1 POP SWAP2 SWAP1 POP JUMP JUMPDEST PUSH0 DUP2 SWAP1 POP SWAP2 SWAP1 POP JUMP JUMPDEST PUSH2 0x1CBD PUSH2 0x1CB8 DUP3 PUSH2 0x1564 JUMP JUMPDEST PUSH2 0x1CA3 JUMP JUMPDEST DUP3 MSTORE POP POP JUMP JUMPDEST PUSH0 PUSH2 0x1CCE DUP3 DUP7 PUSH2 0x1CAC JUMP JUMPDEST PUSH1 0x20 DUP3 ADD SWAP2 POP PUSH2 0x1CDE DUP3 DUP6 PUSH2 0x1CAC JUMP JUMPDEST PUSH1 0x20 DUP3 ADD SWAP2 POP PUSH2 0x1CEE DUP3 DUP5 PUSH2 0x1CAC JUMP JUMPDEST PUSH1 0x20 DUP3 ADD SWAP2 POP DUP2 SWAP1 POP SWAP5 SWAP4 POP POP POP POP JUMP JUMPDEST PUSH32 0x4E487B7100000000000000000000000000000000000000000000000000000000 PUSH0 MSTORE PUSH1 0x12 PUSH1 0x4 MSTORE PUSH1 0x24 PUSH0 REVERT JUMPDEST PUSH0 PUSH2 0x1D36 DUP3 PUSH2 0x1564 JUMP JUMPDEST SWAP2 POP PUSH2 0x1D41 DUP4 PUSH2 0x1564 JUMP JUMPDEST SWAP3 POP DUP3 PUSH2 0x1D51 JUMPI PUSH2 0x1D50 PUSH2 0x1CFF JUMP JUMPDEST JUMPDEST DUP3 DUP3 MOD SWAP1 POP SWAP3 SWAP2 POP POP JUMP JUMPDEST PUSH32 0x4F6E6C792061646D696E2063616E207265736574206C6F747465727900000000 PUSH0 DUP3 ADD MSTORE POP JUMP JUMPDEST PUSH0 PUSH2 0x1D90 PUSH1 0x1C DUP4 PUSH2 0x1735 JUMP JUMPDEST SWAP2 POP PUSH2 0x1D9B DUP3 PUSH2 0x1D5C JUMP JUMPDEST PUSH1 0x20 DUP3 ADD SWAP1 POP SWAP2 SWAP1 POP JUMP JUMPDEST PUSH0 PUSH1 0x20 DUP3 ADD SWAP1 POP DUP2 DUP2 SUB PUSH0 DUP4 ADD MSTORE PUSH2 0x1DBD DUP2 PUSH2 0x1D84 JUMP JUMPDEST SWAP1 POP SWAP2 SWAP1 POP JUMP JUMPDEST PUSH32 0x4F6E6C792061646D696E2063616E207570646174652061646D696E0000000000 PUSH0 DUP3 ADD MSTORE POP JUMP JUMPDEST PUSH0 PUSH2 0x1DF8 PUSH1 0x1B DUP4 PUSH2 0x1735 JUMP JUMPDEST SWAP2 POP PUSH2 0x1E03 DUP3 PUSH2 0x1DC4 JUMP JUMPDEST PUSH1 0x20 DUP3 ADD SWAP1 POP SWAP2 SWAP1 POP JUMP JUMPDEST PUSH0 PUSH1 0x20 DUP3 ADD SWAP1 POP DUP2 DUP2 SUB PUSH0 DUP4 ADD MSTORE PUSH2 0x1E25 DUP2 PUSH2 0x1DEC JUMP JUMPDEST SWAP1 POP SWAP2 SWAP1 POP JUMP JUMPDEST PUSH32 0x496E76616C69642061646D696E20616464726573730000000000000000000000 PUSH0 DUP3 ADD MSTORE POP JUMP JUMPDEST PUSH0 PUSH2 0x1E60 PUSH1 0x15 DUP4 PUSH2 0x1735 JUMP JUMPDEST SWAP2 POP PUSH2 0x1E6B DUP3 PUSH2 0x1E2C JUMP JUMPDEST PUSH1 0x20 DUP3 ADD SWAP1 POP SWAP2 SWAP1 POP JUMP JUMPDEST PUSH0 PUSH1 0x20 DUP3 ADD SWAP1 POP DUP2 DUP2 SUB PUSH0 DUP4 ADD MSTORE PUSH2 0x1E8D DUP2 PUSH2 0x1E54 JUMP JUMPDEST SWAP1 POP SWAP2 SWAP1 POP JUMP INVALID LOG2 PUSH5 0x6970667358 0x22 SLT KECCAK256 0xE8 DUP3 PUSH3 0xF50980 0x26 0xBC PUSH2 0xC429 0xE3 BALANCE PUSH5 0x63BC41A7B5 0xD0 DUP11 LT 0xB0 PUSH3 0x601697 DUP12 0xBF 0x25 0x29 PUSH7 0x64736F6C634300 ADDMOD XOR STOP CALLER "},"methodIdentifiers":{"admin()":"f851a440","buyTicket(uint8)":"023697f0","claimPastPrize(uint256)":"5b0df84e","claimPrize()":"70740ac9","drawWinner()":"b2185bb1","getBalance()":"12065fe0","getMyTicket()":"3f7daf81","getParticipantCount()":"ad605729","getPastRoundsLength()":"13cd372e","isDrawn()":"3c2bcadc","lastDrawTime()":"5cbbd635","participants(uint256)":"35c1d349","pastRounds(uint256)":"fd9ba024","resetLottery()":"d337616e","startNewRound()":"bd85948c","ticketPrice()":"1209b1f6","updateAdmin(address)":"e2f273bd","winner()":"dfbf53ae"}}}}}